:10000000002000205D9B0000319E0000359E000016
:10001000399E00003D9E0000419E0000DD9E0000D4
:10002000DD9E0000DD9E0000DD9E0000459E00007C
:10003000499E0000DD9E00004D9E0000519E000084
:10004000559E0000233D0000599E00005D9E00006B
:10005000619E0000659E00008B74000065740000C6
:10006000699E0000AD680000B96800005172000090
:100070005B7200006D9E000009810000076F0000A8
:100080001F6F0000719E0000759E00002D73000020
:10009000876F0000916F0000799E00007D9E000038
:1000A0002B6F0000356F0000596F0000636F000078
:1000B000819E0000859E0000899E00008D9E0000AC
:1000C000919E0000959E0000999E00009D9E00005C
:1000D000A19E0000A59E0000A99E0000AD9E00000C
:1000E0006572000011740000136F0000D9730000E6
:1000F000B19E0000B59E0000B99E0000DD9E00008C
:10010000DD9E0000DD9E0000DD9E0000DD9E000003
:10011000DD9E0000DD9E0000DD9E0000DD9E0000F3
:10012000BD9E0000C19E0000C59E0000C99E00004B
:10013000CD9E0000D19E0000D59E0000D99E0000FB
:10018000FFFFFFFFFFFFFFFFFFFFFFFFFFFFFFFF7F
:1001900003329CA77F000000FFFFFFFFFFFFFFFF70
:10080000DFF8AC285369D168CB1851688B4207D206
:100810009168D36841F82300D068401CD06002E0A2
:100820007FF003009061704710B4C0F3870000228E
:1008300000E0521CDFF878385C69A24209D21B69DB
:1008400013F8223003F0FF039842F2D10A6000202F
:1008500001E07FF0060010BC704710B50C0080B2BC
:1008600000F08EFC2060002010BD10B4DFF840388E
:100870005C69DA6814195A68944214D21A69121F12
:100880001A611A6980B28008146860F30704146062
:100890001869027802F0FF0252EA012202605869E8
:1008A000401C586102E07FF00300986110BC704763
:1008B0001CB5040001A9200080B2FFF7B5FF002895
:1008C0000AD06946200080B2FFF7C7FF00992000D8
:1008D00080B2FFF7CAFF07E0DFF8D407006901998B
:1008E00050F82100000A0090009816BD38B50400A9
:1008F0000D00200080B2B0F5085F05DB7FF004003A
:10090000DFF8AC1788612EE06946200080B2FFF75F
:100910008BFF002817D1DFF898070069009900EBDA
:100920008100017801F0FF0151EA05210160A4B2C4
:10093000A40825F07F4555EA046555F000452800D8
:10094000FFF75EFF0FE02900200080B2FFF78DFF68
:10095000A4B2A40825F07F4555EA046555F000458A
:100960002800FFF74DFF31BD02290FD3DFF84027E4
:100970005160906000EB8100001F10610020D0608A
:100980000020506100209061002010707047002806
:1009900003D0DFF81C2792680260002903D0DFF83B
:1009A0001007C0680860DFF8080780697047C0B2A8
:1009B000002804D10020DFF8F816087007E0DFF8FF
:1009C000F0060021C16000218161012101707047A2
:1009D00010B4002000210AE09A6852F8212022F089
:1009E0004042101802E0D207F6D5401C491CDFF83F
:1009F000C0365A69914207D29A6852F82120920F64
:100A00009407F0D5401CF1E710BC704770B4002487
:100A100000E0641C1500EDB2AC4207DA05000E5D83
:100A2000EDB2B542F5D11C70012000E0002070BC91
:100A3000704730B58BB00C00C168012902D1016844
:100A4000022905D0C168002921D1016802291ED0E0
:100A500009A9DFF8D428D2E90035C1E9003507A992
:100A6000DFF8C828D2E90035C1E900350DF10203ED
:100A7000052209A94068C0B2FFF7C8FF00284BD083
:100A800007A89DF80210405C2070012047E0C16873
:100A900000291DD1016802291AD102A9DFF8902886
:100AA00013680B6001A9DFF88C2813680B600DF147
:100AB0000103032202A94068C0B2FFF7A7FF002884
:100AC0002AD001A89DF80110405C2070012026E08A
:100AD000C168012920D1016802291DD005A9DFF8CC
:100AE0005828D2E90035C1E9003503A9DFF84C28C0
:100AF000D2E90035C1E900356B46062205A94068F8
:100B0000C0B2FFF783FF002806D003A89DF80010AD
:100B1000405C2070012002E00020207000200BB01B
:100B200030BD30B587B00C00C168012902D1016821
:100B3000022905D0C16800291ED1016802291BD0F5
:100B4000DFF8FC170988ADF80A10DFF8F8170988F4
:100B5000ADF808100DF1020302220DF10A01406800
:100B6000C0B2FFF753FF00284CD002A89DF8021036
:100B7000405C2070012048E0C16800291ED1016856
:100B800002291BD1DFF8C0170988ADF80610DFF87D
:100B9000BC170988ADF804100DF1010302220DF114
:100BA00006014068C0B2FFF731FF00282AD001A833
:100BB0009DF80110405C2070012026E0C1680129E9
:100BC00020D1016802291DD005A9DFF88427D2E9C8
:100BD0000035C1E9003503A9DFF87829D2E90035ED
:100BE000C1E900356B46062205A94068C0B2FFF78F
:100BF0000DFF002806D003A89DF80010405C20706F
:100C0000012002E000202070002007B030BD70B548
:100C100098B005000C00002000900BA8DFF83819F0
:100C2000342201F023FC07A8DFF83019102201F06C
:100C30001DFC00202060002D00F0BB80002C00F087
:100C4000B880E8680C2880F0B480A868032880F099
:100C5000B0802869042880F0AC802868002806D07D
:100C6000022827D00FD304283BD068D39FE06868C0
:100C70001421484301F05AFCE96901F065FC01F0D8
:100C8000CFFC009093E06868801C07A9AA6851F81F
:100C900022104843401C1421484301F047FCE969F5
:100CA00001F052FC5FF07C5101F0C6FC01F0B8FC91
:100CB00000907CE06968491C0BA8EA6850F82200A3
:100CC0004143491C009101202860009868606946F2
:100CD0002800FFF79CFF0220286000980F3000904A
:100CE00065E0287E0590A8680290E86803900026D9
:100CF0000DF1050102A8FFF79CFE002803D09DF826
:100D000005008619761E01A902A8FFF70AFF002830
:100D100003D09DF804008619761E022028606968B9
:100D20003000C0B24118696069462800FFF76FFFC4
:100D3000042028606868F6B2861B6E6037E0686938
:100D4000002813D0022803D009D303281BD028E0A1
:100D50000020286069462800FFF759FF21E00120A4
:100D6000286069462800FFF752FF1AE0687E0028D5
:100D700002D00220286001E0042028606946280093
:100D8000FFF745FF0DE001202860686801212A690E
:100D9000521C91404843686069462800FFF737FFBE
:100DA000FFE703202860009819300090FFE70098C3
:100DB000206018B070BD2DE9F84306000F00307CAC
:100DC000002877D07068B16801F0EEFC38D2706905
:100DD000401C70617069F168884201D10020706127
:100DE000B068716801F0F4FC01F07EFD01F008FFCD
:100DF00004000D00706901F005FF22002B0001F0D6
:100E00000FFF04000D00F068401E01F0FBFE020021
:100E10000B002000290001F0D9FF02000B00002088
:100E2000DFF8CC1802F0F6F804000D00706801F04D
:100E30005BFD22002B0001F0F3FE02F017FC9EE0A8
:100E40007069401E70617069F168884202D3F06871
:100E5000401E70617068B16801F0BAFC01F044FD99
:100E600001F0CEFE04000D00706901F0CBFE80465B
:100E70008946F068401E01F0C5FE02000B0020000C
:100E8000290001F0A3FF42464B4601F0C9FE0200D3
:100E90000B000020DFF8581802F0BCF804000D0029
:100EA000B06801F021FD22002B0001F0B9FE02F034
:100EB000DDFB64E07068B16801F076FC2FD27069E8
:100EC000401C70617069F168884201D10020706136
:100ED000706801F009FD80468946706901F092FE54
:100EE00004000D00B068716801F016FC01F0FCFC14
:100EF00022002B0001F094FE04000D00F068401E5B
:100F000001F080FE02000B002000290001F05EFFCE
:100F100042464B4602F0DEFB02F0A8FB2FE0706970
:100F2000401E70617069F168884202D3F068401E0B
:100F30007061B06801F0D8FC80468946706901F0A4
:100F400061FE04000D007068B16801F0E5FB01F07E
:100F5000CBFC22002B0001F063FE04000D00F068C2
:100F6000401E01F04FFE02000B002000290001F09E
:100F70002DFF42464B4602F0ADFB02F077FB386096
:100F8000BDE8F18310B504000022200002F0D2FC7D
:100F900010BD2DE9F84F06000F009046D8F800006C
:100FA00002F0FCFC8146D8F8000002F0F7FC49464C
:100FB00001F0CAFA8146D8F8040002F0EFFC82463C
:100FC000D8F8040002F0EAFC514601F0BDFA4946A7
:100FD00001F032FB8146386802F0E0FC8246D8F826
:100FE000000002F0DBFC514601F0AEFA8246786860
:100FF00002F0D4FC8346D8F8040002F0CFFC594636
:1010000001F0A2FA514601F017FB04002000494606
:1010100001F0DEFB0400786802F0C0FC8246D8F8DC
:10102000000002F0BBFC514601F08EFA824638689F
:1010300002F0B4FC0700D8F8040002F0AFFC39005D
:1010400001F082FA0100504601F066FB050028001D
:10105000494601F0BDFB0500C6E90045BDE8F18F3A
:1010600038B504002168206801F06EFA0500616857
:10107000606801F069FA290001F0DEFA01F034FC41
:1010800002F09EFC02F0F2FA32BD70B50600306844
:1010900001F02AFC02000B0014001D00706801F032
:1010A00023FC22002B0002F005FD02F0DFFA70BDE8
:1010B000F816002080B58DF80100012269460DF177
:1010C000010002F087FD9DF8000002BD80B501001F
:1010D00089B2090A8DF802108DF8030002226946D0
:1010E0000DF1020002F076FD9DF800109DF8010060
:1010F00050EA012080B202BDE0B50100090E8DF872
:10110000041001A90200120C4A700200120A8A702F
:10111000C8700422694601A802F05CFD69469DF88A
:1011200000204878000450EA02608A7850EA0220E1
:10113000C97808430EBD38B504000D0002F072FDF9
:101140002020FFF7B7FF200080B2FFF7BFFF02F0BB
:101150006EFD02F067FD2D20FFF7ACFFA4B2B4F5E1
:10116000805442F21500844203D22800FFF7C4FFE6
:1011700003E0280080B2FFF7A9FF02F058FD31BD5F
:1011800010B50400002002F04DFD2020FFF792FF73
:10119000200080B2FFF79AFF02F049FD02F042FD05
:1011A0006D20FFF787FF0020FFF784FFA4B2B4F59E
:1011B000805442F21500844204D20020FFF79CFFC5
:1011C000040003E00020FFF781FF040002F02FFD80
:1011D000200010BD70B504000D00032D1ED202F0DA
:1011E00021FD2020FFF766FF42F26C00FFF76EFF43
:1011F00002F01DFD0026AE4237D202F013FD6D2035
:10120000FFF758FF0020FFF755FF0020FFF774FF9E
:1012100044F8260002F00BFD761CECE702F002FD1C
:101220005F20FFF747FF002603E00020FFF742FFA3
:10123000761C062EF9D3002605E00020FFF75CFFA0
:1012400044F82600761CA81E8642F6D35FF0443090
:10125000FFF752FF44F82600761C5FF04430FFF79A
:101260004BFF44F8260002F0E2FC70BD80B5DFF8C9
:10127000F4261278012A03D180B2FFF737FB02E08F
:1012800080B2FFF758FF01BD80B5DFF8D8160978A6
:10129000012903D180B2FFF70BFB02E080B2FFF718
:1012A0006FFF02BD10B59CB06846DFF8BC16702217
:1012B00001F0DCF8DFF8AC060021C16000214161DB
:1012C000002181610021017002F0B1FC002409E0DD
:1012D000684600EBC4004168684630F83400FFF708
:1012E000C5FF641C0E2CF3D340F20440FFF7CCFF83
:1012F00045F20151884204D10120DFF870160870D0
:101300000FE045F20251884204D10120DFF85C165B
:10131000087006E0B0F5AA4F03D10020DFF84C16A4
:1013200008701CB010BD0000C09D0000C89D0000EA
:10133000189E00001C9E0000D09D0000D89D00005B
:1013400046250000A6270000CA2D0000123000002C
:10135000E09D000038B504000D004FF40050FFF789
:1013600093FFEDB2012D0DD1A10603D530F0200081
:1013700034F02004210303D530F4002034F4002499
:1013800004430DE0A10603D550F0200034F0200402
:10139000210303D550F4002034F4002430EA04047F
:1013A00021004FF40050FFF761FF31BD80B550EAD6
:1013B0008100010042F2F020FFF758FF01BD10B597
:1013C00004004FF40050FFF75FFF010031F02001EF
:1013D0002078002801D151F020014FF40050FFF790
:1013E00045FF4FF40650FFF74FFF6178012901D107
:1013F00050F00100A178012901D150F01000E178EE
:10140000012901D150F004002179012901D150F0C6
:101410002000617A012901D150F48070A17A01295C
:1014200001D150F00200E17A012901D150F0080009
:10143000217B012901D150F0400001004FF40650FA
:10144000FFF714FF0021A079002801D151F002011B
:101450006079002801D151F00101E079012801D122
:1014600051F0040142F25000FFF700FF10BD10B52B
:10147000040014F1100000F029F814F1500000F0FD
:101480006FF8200000F005F814F11C0000F09CF843
:1014900010BD10B50400216842F25010FFF7E6FEBF
:1014A000616842F25810FFF7E1FEA16842F2541061
:1014B000FFF7DCFEE16842F25C10FFF7D7FE5FF455
:1014C000803142F20C00FFF7D1FE10BD80B5002143
:1014D0000268012A01D151F480514268012A01D1E8
:1014E00051F001018068400010F4FF70014342F2A6
:1014F0001000FFF7BBFE01BD7FB504000D00160014
:101500000B2D01D3F82515E0032D02D30835ED008E
:1015100010E06846DFF85814102200F0A7FF052EEF
:1015200007D269460520454301EB0500855DED00C6
:1015300000E0F8253543002C05D0290042F2F400E4
:10154000FFF794FE04E0290042F2F800FFF78EFE58
:101550007FBD0000E89D000034930000289D00003E
:1015600010B50400002C02D17FF002002BE02069AE
:10157000032802D27FF0010025E020690C2802D365
:101580007FF001001FE06069062802D37FF00100B0
:1015900019E000212068014342F2FC00FFF766FEDB
:1015A000A168490160680143207B012801D151F005
:1015B000100142F2F000FFF759FE62692169002034
:1015C000FFF79AFF002010BD10B504002068022824
:1015D00014D1216A42F23000FFF748FE616A42F2FC
:1015E0003C00FFF743FEA16A42F23800FFF73EFEDF
:1015F000E16A42F23400FFF739FE26E02068032852
:101600001ED1A16842F21800FFF730FEE16842F2F5
:101610001C00FFF72BFE216942F22000FFF726FE97
:10162000616942F22800FFF721FEA16942F224001D
:10163000FFF71CFEE16942F22C00FFF717FE04E001
:10164000216B42F24800FFF711FE002120790128AA
:1016500001D151F020016079012801D151F0100130
:10166000206851EA400142F21400FFF7FFFD10BD6F
:1016700080B500F006F8010042F23000FFF7F6FDF9
:1016800001BD70B505000E001A24DFF8E0020078F5
:10169000012800D11E243000002102F07BFB01D183
:1016A000002022E001200021220002F081FB02F054
:1016B00091FB290000F048FF310001F089F85FF04C
:1016C0007C5100F0B9FF00F0ABFF1A2C02D1DFF81B
:1016D0000C1901E07FF07F41814206D21A2C02D121
:1016E000DFF8F80801E07FF07F4070BD00000000E7
:1016F0000000244010B50400200000F005F814F1AB
:10170000200000F05CF810BD10B5040000206168F6
:101710008901A06851EA0011E06851EAC0016069DE
:1017200051EA8001207E002801D151F00101607E44
:10173000002801D151F002012068002810D142F2A6
:101740002810FFF793FDA18BC9B2608B00F019F848
:10175000216951F0200142F22410FFF787FD0FE0CC
:1017600042F23410FFF782FDA18BC9B2608B00F00A
:1017700017F8216951F0200142F23010FFF776FD91
:1017800010BD80B511F03F010005000DC9B280B257
:1017900050EA0130010042F22010FFF767FD01BD61
:1017A00080B511F03F010005000DC9B280B250EACA
:1017B0000130010042F22C10FFF758FD01BD10B5B9
:1017C00004000021207E002801D151F00201607E3A
:1017D000002801D151F001012069042802D151F003
:1017E000040102E0206951EAC001E06851EA4011B9
:1017F000A06851EA8021606851EA403120680028E1
:1018000009D142F2EC00FFF731FD616942F2E400D8
:10181000FFF72CFD08E042F2E800FFF727FD6169C1
:1018200042F2E000FFF722FD10BD10B504002000D9
:1018300000F04AF814F10C0000F054F814F1200004
:1018400000F098F814F1280000F0BDF814F134000D
:1018500000F0A7F810BD80B50021002809D00228AB
:1018600013D00CD304281CD015D3062825D01ED3A2
:1018700028E042F27400FFF707FD010022E04FF478
:101880000250FFF701FD01001CE042F28400FFF767
:10189000FBFC010016E042F27800FFF7F5FC0100C6
:1018A00010E042F27C00FFF7EFFC01000AE042F298
:1018B000C810FFF7E9FC010004E04FF40750FFF700
:1018C000E3FC0100080002BD80B500210168426808
:1018D00051EA0221806851EA004142F2A810FFF764
:1018E000C5FC01BD38B5040042F244052800FFF7ED
:1018F000CBFC010011F08001E0680143207C01284D
:1019000001D151F01001607C012801D151F040015A
:10191000606851EA0021206851EA0031A06851EA6C
:1019200080312800FFF7A2FCA07C002804D0012110
:101930005FF48030FFF70EFD31BD70B504000D007F
:1019400042F2A8163000FFF79FFCDFF8D8160840D7
:10195000044354EA052421003000FFF787FC70BDE2
:1019600000000000F8160020889700008C17002067
:10197000389D000010B50400218842F2A800FFF74E
:1019800075FC618842F2AC00FFF770FCA18842F25E
:10199000B000FFF76BFCE18842F2B400FFF766FC91
:1019A00010BD80B50021027A012A01D151F0010158
:1019B000426851EA0211006851EAC01142F2C410B3
:1019C000FFF754FC01BD70B50400002542F2440647
:1019D0003000FFF759FC01006068032805D151F081
:1019E00080013000FFF742FC07E031F08001300059
:1019F000FFF73CFC606855EA0055206855EA001581
:101A0000207A012801D155F00105290042F2D000C9
:101A1000FFF72CFC70BD70B5040042F208050021F0
:101A20002800FFF723FC42F2D8163000FFF72CFC09
:101A3000010011F03F01606851EA4021A06851EABD
:101A400080113000FFF712FC2169090442F2E01016
:101A5000FFF70CFC00212078012801D151F400612E
:101A6000E06851EA40312800FFF700FC70BD80B506
:101A70000022C9B2012901D152F4006252EA403277
:101A8000110042F20800FFF7F1FB01BD80B54FF4F1
:101A90000850FFF7F9FB000C02BDF8B5060042F252
:101AA00008042000FFF7F0FB050000212000FFF7ED
:101AB000DDFB42F2D8173800FFF7E6FB0100890989
:101AC000890151F00801306801433800FFF7CEFB6F
:101AD000F079002809D0002142F20400FFF7C6FB8C
:101AE000002142F26400FFF7C1FB00213079012898
:101AF00001D151F00101B06851EA002142F2040025
:101B0000FFF7B4FB29002000FFF7B0FBF1BD80B563
:101B10000100042906D2012010FA01F14FF4866079
:101B2000FFF7A4FB01BD70B504000D0016000BE02B
:101B3000210042F2D410FFF799FB641C296842F29D
:101B40007000FFF793FB2D1D3000461E0028EFD1DB
:101B500070BD10B504002068002805D0022815D0FB
:101B60000BD303281BD023E0A068616851EA004131
:101B700042F2CC10FFF77AFB1AE0A068616851EAE4
:101B8000004142F2E810FFF771FB11E0A0686168C4
:101B900051EA004142F2D010FFF768FB08E0A0686C
:101BA000616851EA004142F2E410FFF75FFBFFE792
:101BB000207B012804D1A26821696068FFF7B3FF88
:101BC00010BD80B5010042F25400FFF74FFB01BD8C
:101BD00010B50400616B89B240F60800FFF746FBC0
:101BE000606BC0F3034140F60C00FFF73FFB616AF6
:101BF00089B24FF40160FFF739FB606AC0F303411B
:101C000040F61400FFF732FBA16B89B240F61800D2
:101C1000FFF72CFBA06BC0F3034140F61C00FFF75D
:101C200025FBA16A89B24FF40260FFF71FFBA06A8F
:101C3000C0F3034140F62400FFF718FBE16B89B2C3
:101C400040F62800FFF712FBE06BC0F3034140F6BB
:101C50002C00FFF70BFBE16A89B24FF40360FFF73A
:101C600005FBE06AC0F3034140F63400FFF7FEFADB
:101C7000216C89B240F63800FFF7F8FA206CC0F307
:101C8000034140F63C00FFF7F1FA216B89B24FF4B3
:101C90000460FFF7EBFA206BC0F3034140F6440009
:101CA000FFF7E4FA012140F61C20FFF7DFFA0021DC
:101CB000207910F003000143A068800010F00C00B0
:101CC0000143E068000110F0300001432069800109
:101CD00010F0C00001436069000210F4407001433D
:101CE000A069800210F440600143E069000310F431
:101CF00040500143206A800310F44040014340F605
:101D00000400FFF7B3FA002194F84400012801D140
:101D100051F00101206851EA40014FF40060FFF7E3
:101D2000A5FA10BD10B504004FF40060FFF7ACFA3F
:101D30004FF6FE710840E4B2012C01D150F00100D1
:101D400080B201004FF40060FFF790FA10BD38B583
:101D500005004FF42160FFF797FA0400E87C0128A2
:101D600012D154F004044CF6143140F60C20FFF765
:101D70007DFA21004FF42160FFF778FA4FF42160DB
:101D8000FFF782FA4005F9D5287C01281CD154F0D0
:101D900002044CF6143140F60C20FFF767FA2100DC
:101DA0004FF42160FFF762FA4FF42160FFF76CFAFD
:101DB0008005F9D5687C012803D1012000F050F896
:101DC00002E0002000F04CF8A87C012812D154F069
:101DD00001044CF6143140F60C20FFF747FA2100BD
:101DE0004FF42160FFF742FA4FF42160FFF74CFAFD
:101DF000C005F9D5297A11F03F01287A10F03F008B
:101E00000143E868800110F4707001434FF4816071
:101E1000FFF72CFA0A2001F017FF2968686851EAD9
:101E2000800140F21440FFF721FAE87C002801D13C
:101E300034F00404287C002801D134F00204A87C8A
:101E4000002801D1640864004CF6143140F60C20DF
:101E5000FFF70CFA21004FF42160FFF707FA31BDBC
:101E600070B504004FF48260FFF70EFA0500C5F369
:101E70004020C5F3002105F0FF0555EA002555EA8D
:101E8000412555F020014FF48260FFF7EFF942F24F
:101E9000BC063000FFF7F8F90100E4B2012C0BD1C9
:101EA00031F004013000FFF7E1F94FF42160FFF752
:101EB000EBF980050BD4F8E751F004013000FFF78F
:101EC000D5F94FF42160FFF7DFF98005F9D535F03A
:101ED000200529004FF48260FFF7C8F970BD70B586
:101EE0000C00150043F20806012801D143F20C064C
:101EF000300080B2FFF7C8F9EDB2012D01D10443E3
:101F000001E030EA04042100300080B2FFF7AEF9AE
:101F100070BD80B5002804D143F20800FFF7B4F982
:101F200003E043F20C00FFF7AFF902BD80B50100FA
:101F300043F20400FFF79AF901BD10B50C00002828
:101F400002D143F2100001E043F2140080B2FFF727
:101F50009BF9204201D0012000E0002010BD10B507
:101F60000400206800F00EF8606800F011F8A06826
:101F700000F014F8E06800F017F821691420FFF76A
:101F800075F910BD80B501000020FFF76FF901BDA4
:101F900080B501000420FFF769F901BD80B501009B
:101FA0000C20FFF763F901BD80B501000820FFF7A1
:101FB0005DF901BD80B5010042F21810FFF756F936
:101FC00001BD10B542F21C1400212000FFF74EF9AC
:101FD00001212000FFF74AF910BD0000FFFF0F00AC
:101FE00038B504000025FFE76D1C4FF48060FFF753
:101FF0004BF944F24411884204D0012CF4DBAC428A
:10200000F2D200E0FFE7280032BD80B501F018FEF3
:10201000C82001F019FE01F00FFE4FF4FA7001F034
:1020200013FE01BDC0E0FFFF2DE9F847C1B0040079
:102030000D0000260020002038A8DFF8E01324223D
:1020400000F014FA002C02D17FF00200DDE160689C
:10205000002101F09FFE02D17FF00100D5E160690F
:10206000082802D37FF00100CFE16069082802D17F
:102070007FF00100C9E1002D02D17FF00200C4E130
:10208000E068E44901F0D4FE00D8012638A861696F
:1020900050F82170606800F027FC0022DFF88033E0
:1020A00000F0BEFD80468946380000F0ABFD02001E
:1020B0000B004046494600F089FE01F0D7FADFF8F0
:1020C000641300F071FB16D201275FF00108DFF8FE
:1020D000581300F07DFBDFF8541300F035FA5FF081
:1020E000804100F031FA00F09BFA82461AF1010AB1
:1020F0005FEA5A0A4DE0DFF8381300F055FB16D2BC
:1021000001275FF00008DFF82C1300F061FBDFF817
:102110001C1300F019FA5FF0804100F015FA00F08E
:102120007FFA82461AF1010A5FEA5A0A31E0DFF8C3
:10213000081300F039FB16D200275FF00108DFF822
:10214000FC1200F045FBDFF8E41200F0FDF95FF04F
:10215000804100F0F9F900F063FA82461AF1010AB1
:102160005FEA5A0A15E000275FF00008DFF8D01296
:1021700000F02EFBDFF8B41200F0E6F95FF08041CA
:1021800000F0E2F900F04CFA82461AF1010A5FEA27
:102190005A0ABAF5006F01D340F2FF7A0120FFF727
:1021A000B8FE8146012202210120FFF798FE00219E
:1021B0009948FFF7CFF801208DF8180001208DF81D
:1021C0001A0001208DF8190000208DF8240000204D
:1021D0008DF8230000208DF8210000208DF82200CA
:1021E00000208DF81C0000208DF81B0000208DF8C9
:1021F0001D0000208DF81E0000208DF81F0006A88D
:10220000FFF7DDF82097CDF8848007202290202268
:1022100014F1100130AF380000F018F901201C90C3
:1022200001201D904FF400701E904FF410601F901D
:102230000220239001208DF8900001208DF891005C
:10224000A1682068FFF71DFA2B90CDF8B0A0002000
:102250002D9000202E901CA8FFF709F914200D9056
:1022600024200C9001200E90082114A8FEF78AFE6D
:1022700003201190F6B2002E01D0002000E00120D2
:102280001290606B1090206B0F9001208DF84C0025
:1022900000208DF84D0001208DF84E000C2214F125
:1022A000380116AE300000F0D1F80C21002219AE32
:1022B000300001F03FFB0CA8FFF7B7FA0121DFF86F
:1022C0008401FFF747F801214FF48140FFF742F8FE
:1022D000192001F0B9FC01214FF40140FFF73AF851
:1022E00002210120FFF729FE0028F9D04CF28016C8
:1022F00000213000FFF72EF80220FFF717FE032021
:10230000FFF7A9FA02900420FFF7A5FA0390012134
:102310000120FFF712FB01214FF48140FFF71AF86B
:10232000192001F091FC01214FF40140FFF712F850
:1023300002210120FFF701FE0028F9D00021300022
:10234000FFF708F80220FFF7F1FD0320FFF783FAFB
:1023500000900420FFF77FFA01900298800304D5D3
:102360000299DFF8E400014302910398800304D549
:102370000399DFF8D400014303910098800304D54A
:102380000099DFF8C400014300910198800304D54F
:102390000199DFF8B4000143019101984042019096
:1023A00000984042009001984042019003984042BA
:1023B000039002AA69460AA8FEF7EBFDDDE90A01CF
:1023C000CDE904010499606800F0BEF80490059915
:1023D000606800F0B9F80590606C002804D1DDE970
:1023E0000401C5E9000107E004A8FEF739FE2860F2
:1023F00004A8FEF74AFE68605FEA897004D40022F0
:1024000002210120FFF76BFD002042B0BDE8F087FC
:10241000000000000150C34BE0FF39002C9A00007F
:1024200000809640010020420000204200E0FF446E
:1024300001004843000048430100A0430000A043BE
:102440000000C844400E11000000FCFF62B38B077F
:1024500008D0521E11F8013B00F8013B00F0248027
:102460008B07F6D1830740F0208000BF103A07D3D6
:1024700030B4B1E83810103AA0E83810F9D230BCC6
:10248000530724BFB1E80810A0E8081044BF51F872
:10249000043B40F8043BD20724BF31F8022B20F85C
:1024A000022B44BF0B7803707047121F17D35B00D9
:1024B00009D151F8043B20F8023B1B0C121F20F8F5
:1024C000023BF6D20BE051F8043B00F8013B1B0A3B
:1024D00020F8023B1B0C121F00F8013BF3D238BF5F
:1024E000121D521E24BF11F8013B00F8013BF8D821
:1024F000704730B5016884684218416802EB5103A7
:10250000C90703D54C4401E0491C08D19A4218BFC1
:1025100012F9011B01D10C3030BD12F8015B00290A
:1025200004F8015BF0D4491EF7D5EFE750B1B0FADB
:1025300080F18840C1F19D01C905020672F1004297
:1025400041EB10207047070BFF2212EAD05C1DBF41
:1025500012EAD153944593422BE09C44D30780EA7E
:10256000010243EA002043EA01211A40A1FB0030A6
:10257000C04238BF00187CF17F010BDBFE294ADA2C
:102580005B0842EAC15153EA006373F1004C51EB1E
:1025900010207047D1F1080CDCF120012FDB5B0823
:1025A00010FA01F10B4320FA0CF073F10041504195
:1025B000704794451CBF02EAD153934280EA01025E
:1025C00002F000421DD0400019D0490017D05BB97D
:1025D000634514D00902B1FA81F39940BCEB030CB6
:1025E000C00140F00040C1E70002B0FA80FC10FAE0
:1025F0000CF0B3EB0C0CC90141F00041B6E7100040
:10260000704740000AD0490008D010F1807F94BF85
:1026100011F1807F02E042F0FF407047D0437047E5
:10262000C10DD1F19E0104D4000240F00040C84029
:1026300070476FEAE070704790EA010F40F17280D6
:1026400081F00041431A4FF000423EBF5340C01A90
:10265000C918D3095FEAD05C13EB400F34BFB3EB6A
:10266000410F40E07CEBD1530CD342EA012122D848
:10267000D1EB402009D3400A28BF5FEA500140EB6C
:10268000CC507047401A15D04002B0FA80F2521C6C
:102690009040400A4FEA3C23B3EB026384BF00EB57
:1026A000730007E040F400001A16DB07C2F10102D4
:1026B000D04018437047182BFCDC31FA03F202FAC1
:1026C00003F3591A38BF42F00102D2EB40203CBF5D
:1026D0000018ACF1010C5FEACC5CC20572F100415C
:1026E0004CEB5020704713EB400F0FD2C94209D07A
:1026F000ACEBD153022B03DB4902172BDDDD704716
:102700009143401AC042D5D10020704713EB410FCE
:10271000D0D36FF00000704790EA010F7FF592AFC1
:1027200081F00041421A3CBF801A8918C0F3C75299
:10273000FF2A4FF0004C22D0C1F3C7534BB3D21A3B
:10274000D2F119032EDD4CEA01214CFA03F321EA00
:102750000303D1404CEA00226FF3160052180FD346
:1027600053EAC2534CEA520273EB0C0C50EB1220AA
:10277000420012F1807F38BF70476FF31600704738
:1027800053EA026322EA0C0273EB0C0C50EB1220AA
:102790007047490212BF9A4200EB5120EFE7D2F195
:1027A0001703D2D570470A0540EA010C1CEB0C0F49
:1027B0004FF0807C07D305D01CEB400F9CBF1CEB77
:1027C000410F814270471CEB410F98BF8842704710
:1027D0004FF0FF0C1CEAD0531DBF1CEAD1526345D9
:1027E000624543E09B1A5FEACC7280EA010C42EA40
:1027F00001211CEA020C42EA0020421A38BF01EB18
:10280000420253F17E034FEA1121B2FBF1F001FBCA
:10281000102260F3D63C4FEA0222B2FBF1F001FB3A
:10282000102260F3CE1C4FEA0222B2FBF1F006DD6B
:10283000FF2B29DA5CEA500040EBC3507047C3F12C
:10284000020301FB1022192B40EA4C010CF0004C52
:1028500041F0807121DC21FA03F0C3F1200399409B
:10286000114371F1004250EB0C00704763451ABFF1
:102870000CEAD152624512E080EA010C00180CF01B
:10288000004C06D049181AD10CF0004C4CF0FF4017
:102890007047C94208BF6FEA020C60467047634543
:1028A00006D1B2EB0C02F5D001F000414840704770
:1028B0004A0212BF0846484000F0004070474AB93B
:1028C0000902B1FA81F2914043B19B18C00140F076
:1028D000004092E7C90141F0004152420002B0FAC3
:1028E00080F39840D31A88E7C0F3C75181B1FF291C
:1028F00006D0C110400721F0E04101F1605170475E
:1029000041020CBF40F4E0016FF00041002070472D
:1029100000F0004100020AD0B0FA80FC00FA0CF08E
:1029200001F16051A1EB0C5101EBD0214005704742
:102930002DE9FC4D17464A005215521C06D10B03D7
:1029400040F01881CC0F11D1BDE8FC8D6A4601F032
:1029500083FA884606464346324633F0004104BFB8
:102960000028854900F00681D80F07D0AFF300801A
:102970004FF0FF306FF00041BDE8FC8D002B04D517
:102980004FF00041821A61EB03037C497C48002927
:1029900005D500244FF00045201A65EB01018B425C
:1029A0000CDC01DB824209D201223046414601F0B3
:1029B0008BFA06460098401E884600900020714918
:1029C0003246434600F086FE04460D4600206E491E
:1029D0003246434600F07EFE02460B46204629461C
:1029E00000F0F4F9064688463246434600F018F9EE
:1029F00082468B466548664952465B4600F010F9B0
:102A0000644A654B00F066FE52465B4600F008F9EA
:102A1000624A634B00F05EFE52465B4600F000F9EE
:102A2000604A614B00F056FE52465B4600F0F8F8F3
:102A30005E4A5F4B00F04EFE52465B4600F0F0F8F7
:102A40005C4A5D4B00F046FE52465B4600F0E8F8FB
:102A50005A4A5B4B00F03EFE52465B4600F0E0F8FF
:102A600002460B462046294600F0F2FE3246434617
:102A700000F0D6F806460098884601F0C3FA002F09
:102A800082468B461BD14F484F4952465B4600F069
:102A9000C7F83246434600F01DFE02460B4620466C
:102AA000294600F0D5FE04460D464FF04040474908
:102AB00052465B4600F0B4F822462B4658E036DD1D
:102AC0000020434922462B4600F0AAF8CDE9000138
:102AD0002246404840492B4600F0A2F804460D46E5
:102AE0003E483B493246434600F09AF806460F46B8
:102AF0003B483C4952465B4600F092F832463B4622
:102B000000F0E8FD02460B462046294600F0A0FEF4
:102B1000DDE9002300F0DEFD04460D4600203249C9
:102B200052465B4600F07CF822462B4620E04FF0F0
:102B3000C0402E4922462B4600F072F8CDE9000134
:102B400022462B482B492B4600F06AF804460D46D6
:102B500029482A493246434600F062F822462B466D
:102B600000F0B8FDDDE9002300F0B4FD52465B46FD
:102B700000F0B0FDBDE8FC8D0000F0FF9EA0E63F38
:102B8000CD3B7F660000F0BF0000F03FF7DE29BFBD
:102B9000D8F8C23FF4B3FECC1A99C33F62CB68D9D0
:102BA0006F46C73FC6C912DAC471CC3F4AE98A945E
:102BB0002449D23FF75F97999999D93FBC5555550C
:102BC0005555E53F9EBC9AF71C7D7FBE422EE63FE1
:102BD0007BCBDB3FABA6320EE526553E0EE5261538
:102BE0007CC4BC7FDE2774BE1344D33F4715F73F38
:102BF00044DF5DF80BAE543EFE822B654715F7BFF0
:102C0000012295E650B1B0FA80F18840C91CC1F5A7
:102C10008461090501EBD0214005704701467047EA
:102C200030B540F2FF7C1CEA11541DBF1CEA13555D
:102C3000644565453FE0641981EA030C6FF35F5317
:102C40000CF0004C43F48013C90241F0004141EA0A
:102C5000505EC5021100A5FB020200284FF00000E3
:102C6000EEFB01204FF00001E3FB052118BF42F00D
:102C70000102401800214941E3FB0E01A4F58064E4
:102C80000D0302D292184041494154F1010470DD14
:102C9000450872F1004250F1000051EB0451A1F5DA
:102CA000801102D441EA0C0130BD40F2FF7E4CEAB3
:102CB0000E51002030BD0CEA1355644518BF654520
:102CC00081EA030C0CF0004C41D050EA410E1CBFCD
:102CD00052EA430E02E06146002030BD24422C44FB
:102CE0001BD15FEA050EF6D0090302BF01460020A2
:102CF000AEF1140EB1FA81F5AEEB050401FA05FE52
:102D00000C35C5F1200100FA05F5C8404EEA000E69
:102D10006FF35F5343F480139CE733F00043B3FA3F
:102D200083F504BFB2FA82FE75440B3D641BB5F116
:102D3000200E2FBF02FA0EF3AB40C5F1200E22FA8F
:102D40000EFE38BF43EA0E03AA40641C7CE750EA3B
:102D5000410E14BF52EA430E6FF000014FF400150C
:102D600015EB430F8EBF194615EB410F9DE7B4D805
:102D700030BDD4F10104B4F120050FDAC4F120050F
:102D8000520828BF42F0010210FA05FE01FA05F5CB
:102D90007244E2BFE0402843E1400FE0352C9ADC6A
:102DA000C5F1200452EA400220FA05F218BF42F0B1
:102DB000010231FA05F0A1400A43002172F10042FC
:102DC00050F1000051EB0C0130BD090BF0B540F2A1
:102DD000FF7581EA030C0CF0004C15EA11541DBF7D
:102DE00015EA1357AC42AF42E5E0BC41C1F3130111
:102DF000C3F31303801A994143F4801304D2641E71
:102E00000018494180185941C90241EA5051B1FBAB
:102E1000F3F603FB1611A2FB0675D7EBC020A94100
:102E200002D2761E80185941C90241EA5051B1FBC5
:102E3000F3FE03FB1E11A2FB0E75D7EBC020A941C8
:102E400003D2AEF1010E80185941890241EA905136
:102E5000760546EA8E2EB1FBF3F603FB1611A2FBB4
:102E60000675D7EB8020A94102D2761E8018594101
:102E7000C90241EA50514EEA060EB1FBF3F603FBDC
:102E80001611A2FB0675D7EBC020A94102D2761E0F
:102E900080185941C90241EA5051B1FBF3F703FBD5
:102EA0001711A2FB0735D3EBC020A94167F100073A
:102EB0000CBF004247F0010766F3D5274FEA1E31E9
:102EC000B80814F5806412DDBD0775F1004250EBBF
:102ED0000E5051EB045111F5801F5CBF41EA0C010B
:102EE000F0BD4CF07F6141F0E0410020F0BDBD0736
:102EF0006D0840EA0E5041F48011D4F10104B4F1A0
:102F000020060ADAC4F120060200E04001FA06F3C6
:102F1000E1401843B24015430EE0342C13DCC6F1F7
:102F2000200445EA40056D0820FA06F2154321FA0F
:102F300006F0A1400D43002175F1004250F1000060
:102F400051EB0C01F0BD00205FEA0C01F0BDCFB9E0
:102F500092185B41B3FA83F704BFB2FA82F6BF1945
:102F60000B3FB7F120062FBF02FA06F3BB40C7F1B3
:102F7000200622FA06F638BF3343BA401CB1E419E2
:102F8000641E33E77F4231F00041B1FA81F404BF9F
:102F9000B0FA80F6A4190B3CB4F120062FBF00FA5A
:102FA00006F1A140C4F1200620FA06F638BF3143ED
:102FB000A0403C1B1AE7AC421ABF05EA1357AF42C8
:102FC00012E050EA41061CBF52EA4306BFE750EA4E
:102FD0004107304661461CBF41EA0551F0BD52EA47
:102FE000430C08BFC143F0BD00204FF4001616EBA0
:102FF000410F98BF16EB430F08BF16EB410F24BFDC
:10300000C14305E016EB430F0CBF61464CEA055186
:10301000F0BD0F0A2DE9FC4D8AB0DDE90A4524F028
:10302000000635F0004708BF002E00F0D9820646A2
:103030000F460020DFF8B41532463B4600F0F4FF9F
:1030400000F0CE8269004915DDE90AAB01F1010803
:10305000DFF89C15CDF800B000F0E6FF08BFB8F12E
:10306000000F02D1280300F0BB825800401510F178
:10307000010C019700F0EC8137F000430CBF002AEF
:10308000B8F1000F00F0E4814FEA4B0353EADA7322
:103090004FEA4A0208BF002A1CD040F23340A0EB9E
:1030A0005352352A04DB0AF0000A0BF0004B11E002
:1030B000202A05DD203A2BFA02F000FA02FB00E09C
:1030C00002D14FF0000A05E0002AC4BF2AFA02F03C
:1030D00000FA02FAF80F1CD0002D05D500204FF0A1
:1030E0000041041B61EB050559460029504605D5F2
:1030F00000224FF00043101A63EB01018D4208BF1C
:10310000844206D0AFF300804FF0FF306FF00041F3
:10311000A9E201AA3046394600F09EFE04460D465B
:10312000C80F08BF002243D04FEA4B0325F00045EB
:103130005046594653EADA734FEA4A0208BF002A5A
:103140001CD040F23446A6EB5352352A04DB0AF079
:10315000000A0BF0004B11E0202A05DD203A2BFA83
:1031600002F303FA02FB00E002D14FF0000A05E08F
:10317000002AC4BF2AFA02F303FA02FA002905D58D
:1031800000224FF00043101A63EB0101BBF1000F66
:1031900006D500224FF00043B2EB0A0A63EB0B0B9B
:1031A000594508BF504502D10021049101E0012298
:1031B00004920198012813D120462946DFF83424CF
:1031C000DFF8343400F040FF0AD2012200F07CFE28
:1031D0004FF000080026DFF8147404460D4620E086
:1031E0000020DFF8181422462B46FFF719FDDFF800
:1031F000107400223B4600F06DFA00F03FFFA0F192
:103200002008404600F0FEFE0022DFF8F833FFF70A
:1032100007FD00223B4600F05DFA06460F464FEAE6
:1032200048182046294632463B4600F011FB8246AC
:103230008B4632463B462046294600F04BFA024672
:103240000B4650465946FFF7C1FDCDE90201DDE9C5
:103250000223FFF7E5FC82468B462046294632468C
:103260003B4600F0F5FA04460D46DFF89C03DFF814
:103270009C1352465B46FFF7D3FCDFF89423DFF83C
:10328000943300F027FA52465B46FFF7C9FCDFF89B
:103290008823DFF8883300F01DFA52465B46FFF7BB
:1032A000BFFCDFF87C23DFF87C3300F013FA5246D2
:1032B0005B46FFF7B5FCDFF87023DFF8703300F0F2
:1032C00009FA52465B46FFF7ABFCDFF86423DFF8F0
:1032D000643300F0FFF952465B46FFF7A1FCDFF8CC
:1032E0005823DFF8583300F0F5F952465B46FFF7F4
:1032F00097FC22462B4600F0ABFA01220092824650
:103300008B460020B94932463B4600F0A1FA009AAC
:1033100000F0DAFD52465B4600F0DCF9DDE90223FD
:10332000FFF77EFCB04A7A4402F2BE224244039286
:103330002B46224600F0CEF9044601980D4600F0D7
:1033400061FE039ED6E9002300F0C4F906460F464D
:10335000BB48BC4922462B46FFF762FC32463B463F
:1033600000F0B8F9DDE90A23FFF75AFC0022B64B5A
:1033700000F06AFE63D30122B44B00F09BFE5BD9E0
:10338000CA0F1ABF0022B24B9D4B00F0A3F900F008
:1033900075FE0022954BDFF8BCA2DFF8BCB2CDE988
:1033A00001238046DDE90A01CDF8008032463B4624
:1033B000FFF736FC06460F46404600F023FE024665
:1033C0000B463046394600F043FA52465B46FFF75B
:1033D00027FC06460F46DDE90A0122462B46FFF789
:1033E0001FFC044603988446D0E902230D46DCE91D
:1033F000040100F06FF9DDE90A23FFF711FC5246E2
:103400005B46FFF70DFC22462B4600F063F932467F
:103410003B4600F05FF9DDE9012300F065FE20F096
:10342000000431F0004508BF002C08D04A005215B6
:10343000521C06D10B0304D10020884901E0002072
:103440000021049A002A00F0CD8081F000410AE1B9
:10345000BCF1000F04D1380302D03046394602E1F6
:10346000B8F1000F05D1280318BFDDE90A0140F0CB
:10347000B9800120B8F1000F7BD02B4622465900BD
:1034800041EAD27B5100BBF1000F08BF002917D0E1
:1034900040F23341A1EB5B51352904DB02F000021D
:1034A00003F000430CE0202903DD2039CB408B40A2
:1034B00000E001D1002203E00029C4BFCA408A40D5
:1034C000CDE902232B0008D500214FF0004B0A1B49
:1034D0006BEB0303CDE9082301E0CDE90843DDE907
:1034E0000223CDE90623002B05D500214FF000442F
:1034F0008A1A64EB0303CDE90423DDE908ABDDE9B7
:1035000004239B450CBF92450020DDE906235900AA
:1035100041EAD2745100002C08BF002917D040F2B4
:103520003441A1EB5451352904DB02F0000203F0D1
:1035300000430CE0202903DD2039CB408B4000E024
:1035400001D1002203E00029C4BFCA408A4080B1F3
:10355000DDE904AB002B05D500204FF00041801AB7
:10356000994101E0104619468B4506BF824500206F
:103570000120BCF1000F06D1390304D1FE0F12D196
:10358000EC0F2AD023E0B8F1000F13D1290311D199
:103590006A463046394600F05FFCEC0F009814D1C3
:1035A00000281ADC13E0EC0F02D1002816D011E03D
:1035B00038B957E0002814BFFE0F0026EC0F08D1E1
:1035C0002EB100204FF000414DE0002805DD002025
:1035D00048E016B10020224945E000201F4942E0A2
:1035E000002002493FE000BF805D00000000F03F86
:1035F0000000F0BFCD3B7F669EA0E63F000050403C
:103600000000E03F0000903FF7DE29BFD8F8C23F3E
:10361000F4B3FECC1A99C33F62CB68D96F46C73F5B
:10362000C6C912DAC471CC3F4AE98A942449D23F10
:10363000F75F97999999D93FBC5555555555E53F31
:10364000FE822B654715F73F0000E0C00000E04018
:103650000000E0BFEF39FAFE422EE63F0000F07FA7
:103660000000F0FF00210CB0BDE8F08D01F0004239
:103670008B1AA3F16051B1F5801F0ADBB1F17F6FA6
:103680001FD242EAC102C10071F1004142EB507009
:1036900070470B15C3F10903212B10D2890241EAAF
:1036A000905180020128494141F0004121FA03F084
:1036B000C3F12003994071F100415041704710005F
:1036C00070476FF0000013EB103F5CBF000E42EA42
:1036D000C050704770B491EA030F4FF0004540F1BD
:1036E000BF806B40841A71EB030604D26E40001B4E
:1036F000B141121973414FF4001C1CEB410F34BF50
:103700007CEB430683E00C0DA4EB1356362E00F33E
:103710007C80012E45EAC32341DC43EA525312BFA9
:10372000D20292025B08240545EAC12141EA5051C8
:10373000D2EBC020994125D407D1B0FA80F610FA17
:1037400006F162D00020203608E0B1FA81F6B140DF
:10375000C6F1200220FA02F21143B0404FEAF4749D
:10376000B4EB465434F001064FEA74040AD8D6F597
:103770000016760D04F00044F04061FA06F2504065
:10378000F1404840C00A40EA415021F0004128BFC2
:103790005FEA500550F1000044EBD12135E0DB0A2F
:1037A00045EAC121C90AB6F120050EDD42EA02420E
:1037B000120CC5F1200603FA06F6EB4042EA0605B4
:1037C0006D42984161F100010DE062FA06F5F240A8
:1037D000554063FA06FC82EA0C02F3405A406D42FF
:1037E000904161EB030111F4801F05D1641E620555
:1037F00002D06D004041494121F48011430875F128
:10380000004350F1000041EB045170BC70471CEBC9
:10381000410F15D223F0004352EA43060BD04FEA82
:103820004C0CBCEB410F04D80C0D661E342EB7DDDA
:10383000EBE7801A994150EA410608BF0021E4E70E
:1038400008BF1CEB430F28BF6FF00001DDE700004D
:1038500070B491EA030F4FF000457FF543AF6B4022
:10386000841A71EB030603D2001BB1411219734194
:103870004FF4001C1CEB410F34BF7CEB430442E0CF
:103880000C0DA4EB1356352E4FDC45EAC323DB0A9F
:1038900045EAC121C912B6F120050DDD63FA05F62E
:1038A000EB4086EA0305124218BF45F00105C01837
:1038B00051F100010CD213E062FA06F5F2405540D6
:1038C000F3415A40B340F3405A408018594107D35E
:1038D00049085FEA30005FEA350528BF45F0010579
:1038E00001F58011420875F1004250F1000041EBF2
:1038F00004514E0016F5001F70BC38BF7047002001
:10390000090D090570471CEB410F10D252EA43061E
:103910000BD0BCEB410F05D80C0DAB43661E342E0B
:10392000B6DD02E0AB438018594170BC704770BCF3
:103930007047000062F30F2262F31F42401810F03C
:10394000030308D0C91A1FD3DB0748BF00F8012DB5
:1039500028BF20F8022D130030B414461546103944
:1039600028BF20E93C00FAD8490728BF20E90C000D
:1039700048BF40F8042D890028BF20F8022D48BF19
:1039800000F8012D30BC7047C91818BF00F8012D90
:10399000CB0728BF00F8012D7047000010F0004C45
:1039A00068B148BF4042B0FA80F18840D1F19D0132
:1039B0004CEAC15C010671F100414CEB10207047EC
:1039C00040F2FF7C0B0D4DD0634566D230B421EA46
:1039D000035141F4801103F2FD3C5FEA5C0C01D31A
:1039E00000184941890041EA907180004FF4401469
:1039F0000023E202D50AB1F5100107D46D081DD2EB
:103A0000091B641900184941491BF7D56D080AD2F2
:103A10000919641B00184941491BEFD56D08F7D3FC
:103A200001E0520817D0C01861419B1AAC41001840
:103A30004941801AA941F4D452080AD0C01AA141C0
:103A40009B186C4100184941801AA941E9D45208D9
:103A5000F4D15B1C6C4161084FEA330001EB0C515F
:103A600030BC704750EA0103FBD030B4B1FA81F3A7
:103A700011B9B0FA80F41B190B3BB3F120042FBF2E
:103A800000FA04F19940C3F1200420FA04F438BF8D
:103A900021439840D3F101039DE7634514BF50EAE9
:103AA000410CDEE711F5801FDBD8D943AFF300806E
:103AB000704700002DE9F84C044658004015401CA2
:103AC00084B00D4646D069004915491C42D0E80F24
:103AD0001ABF25F0004508260026D80F1CBF23F08A
:103AE000004386F00606CDE90223DDE90201002944
:103AF00008D500274FF0004B381A6BEB010BCDE9CE
:103B0000000B01E0CDE900012900204605D5002782
:103B10004FF0004B381A6BEB0101DDE900AB8B4530
:103B200009DC01DB824506D21046194622462B46A7
:103B3000FFF74CF932E0DDE9020120F0000731F037
:103B4000004104BF002F00212AD020462946FFF75C
:103B50003DF925E06F007F157F1C04D1290302D0B9
:103B60002046294624E070B9190302D010461946B0
:103B70001EE040B9180308BF002F04D1280302D16A
:103B800000200A4901E000200021EC0FE600DA0FD6
:103B900018BF86F006061FB92A0301D186F0020677
:103BA000324605B0BDE8F04C00F0F4BB0000F03F39
:103BB00005B0BDE8F08C0000010049B2002908D42E
:103BC000012210F01F018A40594940B2400941F8D2
:103BD0002020704770B400230024564D2A80564D93
:103BE0002D88ADB2944207D215F4706F04D0534EB5
:103BF00036880E70491C641C934208D215F00F05DC
:103C0000082D04D205784E4E3580401C5B1C944232
:103C1000E5D19342E3D15FF0402000888007FAD5D8
:103C200070BC70474FF480604649088070474FF47D
:103C300080604549088070474020444908807047AB
:103C4000402043490880704710B50400002C1DD067
:103C50000A2000FB04F03F4988420DD24FF48270E5
:103C600044433D4804603D48052101600168C903A3
:103C7000FCD50021016009E020004008FFF7E4FFC7
:103C800014F0010010EB5400FFF7DEFF10BD3448C4
:103C900000687047012033490860002030490860FF
:103CA0000120704780B54FF6FF702F4908802F49DB
:103CB00008802F4908802F48018851F04001018079
:103CC0004020224908802C481521026861F3050232
:103CD00002602A48016831F44041016028480188A7
:103CE00051F48061018000202649088044F243306D
:103CF0002549088001200F4908802448018851F493
:103D0000004101800920224908600120154908600E
:103D10000120FFF751FFFFF78AFFFFF78DFF00201B
:103D200002BD01200F49086001200D49086070475D
:103D300000E100E018400040204000400440004006
:103D4000084000405C0002405800024098000240D9
:103D50009C0002409DD8090014E000E010E000E063
:103D60005017002090C00440080002404800024064
:103D700088000240840002400000024040000240EF
:103D8000440002400C400040104000400C00024043
:103D900080C00440884204D040EA010C1CEB0C0FA8
:103DA00070474FEA400C1CF1807F98BF80427047FB
:103DB000D2B2203A22BF00FA02F1002070475242EC
:103DC000D041D2F1200291404140D040904041404A
:103DD0007047000011F0004303D54942404261F1B1
:103DE0000001B1B1B1FA81F241409040C2F120022C
:103DF00061FA02F181EA000018BF40F0010002F10F
:103E00009D01020643EAC15172F1004241EB1020CC
:103E1000704758B1B0FA80F29040C2F19D0201069D
:103E200043EAC25271F1004142EB1020704700009A
:103E300040EA010C1CEB0C0F4FF0807C07D305D03F
:103E40001CEB400F9CBF1CEB410F884270471CEBE2
:103E5000400F98BF8142704710B5144600F002F839
:103E6000226010BDC1F30A5343B14A0012F5001F8E
:103E700028D2A3F2FE32A1EB0251704750EA410C66
:103E800020D001F0004C31EA0C01B1FA81F204BFFC
:103E9000B0FA80F3D2180B3AB2F120032CBF00FA2B
:103EA00003F1914041EA0C013EBFC2F1200C20FA1F
:103EB0000CF319439040524240F2FD33D21A01EB09
:103EC0000351704700227047124254D440F2FF7CE5
:103ED0001CEA11530FD0634531D09B1863453CBF9A
:103EE00001EB0251704701F0004141EA0C51002002
:103EF000AFF30080704750EA410320D001F0004C3E
:103F000091EA0C011CD0B1FA81F30B3B9A420DD916
:103F1000D21A994051EA0C01C3F1200C20FA0CFC92
:103F200061449840531C40F2FF7CD7E7914041EA3E
:103F30000C01C2F1200C20FA0CF319439040704799
:103F4000B0FA80F31533202BE0D3202AEED3203AA9
:103F5000203B9A4209D9D21A00FA03F141EA0C0136
:103F60000020531C40F2FF7CB8E700FA02F141EA5E
:103F70000C0100207047524240F2FF7C1CEA1153B2
:103F80000DD06345DBD0B2EB030C3CBFA1EB02517B
:103F900070470CF1010221EA035141F4801150EA0B
:103FA000410CCCD001F0004C352A27DC30B481EA3A
:103FB0000C01B2F1200309DAC2F12003044601FA30
:103FC00003F5D0402843D1409C400CE0C3F12002CF
:103FD000450020FA03F418BF44F0010421FA03F06D
:103FE00091400C43002174F1004550F1000051EB69
:103FF0000C01244230BC7FF47BAF70476146002047
:1040000076E7000010F0004160B148BF4042B0FACE
:1040100080F29040D21CC2F5846241EA025202EB67
:10402000D021400570470000904205D1994204D04C
:1040300041EA030C50EA4C0C70474FF4001C1CEB97
:10404000410F38BF8942704741EA030C50EA4C0CDB
:1040500052EA0C0C4FF4001C09D307D01CEB410FA3
:104060009CBF1CEB430F8B4208BF824270471CEB86
:10407000430FFBD8994208BF90427047C1F30A53DF
:1040800040F21E42D31A0CDDCA0283F3070342EA50
:10409000505242F00042DA4002EBE17282EAE170F3
:1040A00070476FEAE17203F2E13008B182F000403C
:1040B0007047000041EA030C50EA4C0C52EA0C0C29
:1040C0004FF4001C09D307D01CEB410F9CBF1CEB25
:1040D000430F994208BF904270471CEB410FFBD839
:1040E0008B4208BF824270472DE9FF4D0D460446C2
:1040F0002B4658004015401C1FD024F0000135F01D
:10410000004208BF002918D0DDE90212510049150C
:10411000491C12D0DDE902AB3BF0004108BFBAF107
:10412000000F0AD0290048D500264FF00047301B69
:1041300067EB0101CDE9000141E020B9190302D08C
:1041400020462946FCE0DDE9026251004915491C80
:1041500001D1160316D1DDE9026737F0004708BF29
:10416000002E09D170B91B030CD1AFF300804FF0C2
:10417000FF306FF00041E3E039B9160305D108B90B
:104180001903F2D0DDE90201DAE024F0000635F08F
:10419000004708BF002E03D1DDE902010C9ABAE006
:1041A00048B9190307D1DDE90201224604B0BDE890
:1041B000F04DFEF735BD00200DE0CDE900410020B7
:1041C0006149002944BF4FF0004666EB0101DDE97B
:1041D00000AB8B4502DA02F00041B1E05B490029F7
:1041E00044BF4FF0004666EB0101DDE90067B942CC
:1041F00009DC01DBB04206D2AFF30080544902F083
:10420000004211439CE0534853492246FEF708FD03
:10421000524B01F0004213430022FFF75BFAFFF715
:104220002DFF8046FFF7EEFE06460F464FF0784022
:104230004B4932463B46FEF7F3FC22462B46FFF73E
:1042400049FA04460D464748474932463B46FEF781
:10425000E7FC22462B46FFF73DFA0D4625F00041CC
:104260000022424BFFF7F0FE044638BFDDE90201B1
:104270004FD322462B462946FEF7D2FC06460F4670
:104280003B483C4932463B46FEF7CAFC3A4A3B4B68
:10429000FFF720FA32463B46FEF7C2FC82468B46C9
:1042A0003748384932463B46FEF7BAFC364A374B68
:1042B000FFF710FA32463B46FEF7B2FC0022274BCE
:1042C000334FFFF707FA22462B46FEF7A9FC0446B8
:1042D0000D4622462B4650465946FFF7FBF9002271
:1042E0003B46FFF7F7F9CDE9000122465046594613
:1042F0002B46FFF7ADFA00223B46FFF7EBF90246EB
:104300000B46DDE90001FEF761FDDDE90223FEF762
:1043100087FC0C9A4244FFF7D7FD02460B4622F079
:10432000000433F0004508BF002C05D048004015BC
:10433000401C03D1090301D1AFF300801046194698
:1043400004B0BDE8F08D000000C89CC000C89C40CF
:104350000000F07FFE822B654715F73F0000E03F2D
:10436000422EE6BFF2E4D5BCE7E84BBE0000903C2D
:10437000112E5781A03F503F5843128C8F71BC3F84
:104380004BE8A541B752013F0BBDF3DAE8708C3F13
:104390000000F03F2DE9F04D5FEA0108044605D525
:1043A00000264FF00047301A67EB01010026624FEC
:1043B00004D54FF00043B61B63EB07071546B9421F
:1043C00008BFB04203D15D4CDFF8748196E05D4BCD
:1043D0005D4A002B04D54FF00047B21A67EB030388
:1043E0008B4220DC01DB82421DD2584E584F3246B0
:1043F0003B4620464146FEF713FC0022554BFFF793
:1044000069F982468B4632463B4620464146FFF7D5
:1044100061F902460B4650465946FEF7D7FC044662
:10442000884645F0010500225FF0795328F00041ED
:10443000204608D54FF00047921A77EB030302D5C8
:10444000101A67EB01018B4258DC01DB824255D226
:104450002246434620464146FEF7E2FB06460F460B
:1044600032463B4620464146FEF7DAFB82468B4603
:1044700039483A4932463B46FEF7D2FB384A394B77
:10448000FFF728F932463B46FEF7CAFB364A374B60
:10449000FFF720F952465B46FEF7C2FB2246434631
:1044A000FFF718F9044688463148324932463B4600
:1044B000FEF7B6FB304A314BFFF70CF932463B466C
:1044C000FEF7AEFB2E4A2F4BFFF704F932463B4670
:1044D000FEF7A6FB2C4A2D4BFFF7FCF832463B4675
:1044E000FEF79EFB0022144BFFF7F4F802460B4642
:1044F00020464146FEF76AFC04468846A80748BFA6
:1045000088F0004815F007000CD02149794480312B
:1045100001EBC0024346D2E900012246FFF7DAF878
:1045200004468846280747BF88F0004120462046B9
:104530004146BDE8F08D00BF0000F03F182D445407
:10454000FB21E93F1426D13F56CD9E5EAA4C58E888
:104550007AB6FB3F0000F0BF845D57134B57B03F66
:10456000B2934C19ED5EE43FBEDE02B90240F83F63
:10457000DE39028FC7C0743F8AAB1283000CC83F7C
:1045800024D7E508B6D8F03F0F34580E5895FD3FB4
:10459000485300002DE9F14FB0B0924604910DF15F
:1045A00042013A9A2B9199464A7000200AE01AF883
:1045B000011B0498309A90470028049000F05C8614
:1045C0000D98401C0D909AF8000050B12528EED1AE
:1045D000002100220791089209910A920B910C92F6
:1045E00004E00D9800F04ABE41F001011AF8010FF5
:1045F0002028F9D023280CD02B2804D02D2805D032
:10460000302809D00BE041F00201EFE741F004014E
:10461000ECE741F00801E9E741F01001E6E72A285C
:104620000FD1D9F8002052F8040BC9F80020002857
:104630000F9003D540420F9041F004010AF1010AA6
:1046400014E00F92DFF83C3C0AE00F98984205DA3C
:1046500000EB800402EB4402303A0F920AF1010AA7
:104660009AF80020A2F130000A28EED39AF8000050
:104670002E2803D04FF0FF320E9229E01AF8010FD6
:104680002A2809D1D9F8000050F8042BC9F80000F5
:104690000E920AF1010A1BE02D280CBF0AF1010A53
:1046A000002000220E92DFF8DC4B0BE040B90E9A9E
:1046B000A24205DA02EB820503EB4503303B0E9381
:1046C0000AF1010A9AF80030A3F130020A2AEDD368
:1046D000ADF840100FF6B0309AF8001000F0E4FE8C
:1046E00008B11AF8010B8DF842009DF842006828C5
:1046F00005D19AF8000068280CD1622106E06C28E8
:1047000004BF9AF800006C2804D171218DF8421082
:104710000AF1010A12A806901AF801BBBBF12501A3
:104720002CD01C3900F0D681091F022940F2D28119
:10473000133900F0D384093900F0CC81891E00F0D0
:104740006885491E00F01585491E022940F2C28184
:10475000091F00F00E85491F00F03181491E00F04D
:10476000BD84491E00F0D880C91E0DD0891E00F0FE
:10477000B584C91E00F0B28400F056BD25238DF823
:104780004830012100F05BBDD9F8000050F8044B1F
:10479000C9F80000002C059440F0AB802B994878B4
:1047A000002800F0A1804FF0FF340FF6E42000F065
:1047B00087FE201A40F0608500F042BD01236A4662
:1047C00002A9304600F034FE002840F055856D1EE9
:1047D000F4D13096079D12AF75B1309E17F8012BBA
:1047E00002A9304600F014FE002801D46D1EF5D158
:1047F0000028309640F040850A9D3020002D8DF82D
:1048000000000CDD309E01236A4602A9304600F00C
:104810000FFE002840F030856D1EF4D13096059FC4
:10482000089D75B1309E17F8012B02A9304600F0A3
:10483000EFFD002801D46D1EF5D10028309640F020
:104840001B850B9D3020002D8DF800000CDD309E67
:1048500001236A4602A9304600F0EAFD002840F034
:104860000B856D1EF4D1309605980899099D47185F
:1048700075B1309E17F8012B02A9304600F0C8FD33
:10488000002801D46D1EF5D10028309640F0F48444
:104890000C9D3020002D8DF800000CDD309E012392
:1048A0006A4602A9304600F0C3FD002840F0E484C7
:1048B0006D1EF4D130969DF8400041077FF583AE20
:1048C0002020002C8DF800007FF77DAE309D012365
:1048D0006A4602A9284600F0ABFD002840F0CC84CF
:1048E000641EF4D130956EE60FF6A430059000F00A
:1048F000A7BC0E9D002D04D5204600F001FE044605
:1049000007E02A46204600F017FE002814BF041BCB
:104910002C46089400F094BCD9F8001051F8040B10
:10492000C9F8001020F00004002121F0FF3512AB7F
:10493000CDE902450593DDE9022306993C2413B92C
:104940000AB90E98A0B102F00F05641E30353A2D59
:1049500008DA12090D5542EA03721B0908BF002A42
:1049600002D105E02735F4E705980D19A842EAD3EE
:1049700008190590C4F13C020E98089282420ADAA6
:10498000BDF84010821A4FF6EF7001400A92ADF860
:10499000401000F055BC002840F152849DF84000C2
:1049A00000F01400102840F04B840F9B07990A98E0
:1049B0005B1A1B1A9A1A002A40F342848CE32B9943
:1049C000487820B14FF0FF340FF69420EFE69DF8C1
:1049D0004200622860D0682817D06A283FD06C282F
:1049E00006D0712847D074282CD07A281DD062E0D8
:1049F000D9F8001051F8040BC9F80010002866D14E
:104A00004FF0FF340FF67020D1E6D9F8001051F8BE
:104A1000040BC9F8001020B94FF0FF340FF65820EE
:104A2000C5E60D99018000F00BBCD9F8001051F8D3
:104A3000040BC9F80010002849D14FF0FF340FF6DD
:104A40003820B4E6D9F8001051F8040BC9F800106A
:104A500000283CD14FF0FF340FF61C20A7E6D9F810
:104A6000001051F8040BC9F8001080B94FF0FF3462
:104A70000FF604209BE6D9F8001051F8040BC9F892
:104A8000001020B94FF0FF340FF6EC108FE60D9AAE
:104A9000D317C0E90023D3E3D9F8001051F8040B71
:104AA000C9F8001020B94FF0FF340FF6CC107EE6A5
:104AB0000D990170C4E3D9F8001051F8040BC9F83E
:104AC000001020B94FF0FF340FF6AC106FE60D99CF
:104AD0000160B5E3D9F80020D21D22F00702C9F821
:104AE0000020D2E900010832C9F80020CDE9020116
:104AF000C80F02D007982D210AE0BDF840008107B9
:104B000002D507982B2103E0C00705D5079820217F
:104B100012AA1154401C079012A80799DDE902451A
:104B200043184BF020006128059321AE0BD00E985E
:104B3000002802D506200E9005E001BF4BF02000B2
:104B4000672801210E91DDE9020148004015401C53
:104B50000A460DD109030BD0ABF1610703201A2FD0
:104B6000089002D20FF62C110DE00FF62C110AE07E
:104B700070B912030CD1ABF1610703201A2F089012
:104B80001CD30FF61C1103221846FDF75FFC57E3F8
:104B9000DDE902016A46FFF75FF9CDE902014BF05A
:104BA0002000612811D1059830210170821C0592E6
:104BB000BBF1610F0CBF7821582102E00FF6DC0138
:104BC000E1E741700798801C0790DDE9020120F0C1
:104BD000000231F0004308BF002A02D10025002462
:104BE00045E14BF02008B8F1610F40F095800E9838
:104BF000002847BF21210191401C0190019F7F1C8B
:104C00002046294600220023DDE90245FFF71CFA71
:104C100038BF85F0004500998DF88420091F002FCA
:104C200000910DF1850034DD06462046294600221C
:104C30000023FFF73FFA2BD21C22FFF745F9044669
:104C40000D46FFF71BFAFF1F002F804609DDFFF717
:104C5000D9F902460B4620462946FEF7F9FD0446DF
:104C60000D46F01D0721B8F1000F0CDD491E5EBF97
:104C700008F00F0200F8012D4FEA2818F3D502E0E2
:104C8000002200F8012D491EFAD5C61D002FCCDCEC
:104C900030460DF18501401A01990DF18506054652
:104CA0008842C8BF0D46002D2FD4854206DA0DF18B
:104CB0008500415D0829A8BF0F2000DA00202946A1
:104CC00021AA0A4400E06D1E12F80139491E8342F0
:104CD000F9D00F2804D10DF18500425C521C4254DA
:104CE000002904D50098001D21AE6D1C0090681E9F
:104CF0000BD431180A783032D3B23A2BA4BF5A44BD
:104D00003A3A401E01F80129F4D50E98002840F1E6
:104D1000AD80691E0E91A9E00099DFF8E42647F204
:104D20009750414391FBF2F2009225F00045C2F109
:104D30000702002A04DD2046294600F03DFB0BE077
:104D400052420020DFF8BC1600F036FB02460B464C
:104D500020462946FEF73AF804460D46B8F1660F9C
:104D600006BF009F0A3706270E983F18142FC8BFAA
:104D7000142730208DF884000DF1850000E03046C6
:104D8000002F35DD06462046294600F001FC01468D
:104D90000A4606F1080304200A26B2FBF6F606EBE3
:104DA000860EA2EB4E02303203F8012C0A22B6FB2B
:104DB000F2F202EB820EA6EB4E063036401E03F8EE
:104DC000026DE9D1083F002F03F10806D7DD084640
:104DD000FDF718FF02460B4620462946FEF738FD30
:104DE0000022DFF82436FDF71BFF04460D46CAE714
:104DF0000DF18501401A0DF1850604E00099491E68
:104E0000401E0091761C31783029F7D0B8F1660F3A
:104E100002D10099491C04E0B8F1650F0CBF0121D3
:104E200000210E9D4D19A842B8BF451E002D1DD46E
:104E3000854204DA705D3428C8BF392000DC302098
:104E40002946721E531800E06D1E13F80149491ED1
:104E50008442F9D0392802D1705C401C705400297A
:104E600004D50098401C16466D1C0090009C28B28A
:104E70000E9F002802DC01250FF228664BF020006F
:104E8000662808BF641C15D067280FFA84F841D142
:104E900018F1040F44DBB84542DA9DF84000641C69
:104EA000010703D428B2B842D8BF074620B23F1A40
:104EB00048BF00270FFA84F8B8F1000F00F3AF8065
:104EC0000898411C0891302205990A54002F03DCF0
:104ED0009DF84000010705D50898411C08912E2235
:104EE00005990A5417EB080FB8BF7C4220B2414223
:104EF000C4192AB20B919442B8BF2546059B089865
:104F00002DB209952A4631461844FDF79FFA641BD5
:104F10000C94CCE0BBF1610F15D14FF0700B17E092
:104F200028B2B84204DA9DF840100A0758BF074675
:104F30007F1E48BF0027BBF1670F14BF4FF0450B22
:104F40004FF0650B04E0BBF1410F08BF4FF0500B71
:104F50000898411C0891002F059916F8012B0A5456
:104F600003DC9DF84000010719D50898411C089101
:104F70002E2205990A54002F11DD6D1E28B287429A
:104F8000B8BF3D460598089B2AB231461844FDF744
:104F90005DFA08982DB228187F1B08900B9705988A
:104FA00008990844B8F1000F80F800B003D42B2210
:104FB0004270821C04E02D2144464170821C6442F0
:104FC00000212CAB20460AE004460A2094FBF0F0B6
:104FD00000EB8005A4EB450403F8014B491C00B22B
:104FE0000028F1DC012906DC4BF02000652804BF15
:104FF000302002F8010B00292CAB08D1302002F838
:10500000010B06E0491E585C303002F8010B002904
:10501000F8DC059908980844121A099247E028B26A
:1050200021B288421BDA0598089B2AB231461844FF
:10503000FDF70CFA08992DB269180891A8EB050044
:10504000002F0B9003DC9DF84000020705D5059A60
:105050002E2050540999491C09910C9727E0059876
:10506000089B22B231461844FDF7F0F908982D1B31
:105070004044002F089003DC9DF840100A0704D537
:10508000411C08912E2205990A5428B28742B8BFC4
:105090003D460598089B2AB206EB08011844FDF727
:1050A000D5F908982DB228187D1B08900B959DF80E
:1050B000400000F01400102840F0C280079A0899C0
:1050C0000B988A18099982180C988A1882180F98D8
:1050D000824280F2B580821A0A92B1E09DF84200C5
:1050E000622808D068280ED06A2814D06C281FD0F7
:1050F000712810D01CE0D9F8001051F8040BC9F841
:105100000010C0B21AE0D9F8001051F8040BC9F829
:10511000001080B212E0D9F80020D21D22F0070260
:10512000C9F80020D2E900010832C9F8002006E0E1
:10513000D9F8001051F8040BC9F800100021CDE98E
:1051400002019DF8400001075AD5DDE90223002B3A
:1051500008BF002A54D04BF02000782850D107987F
:1051600012A930220A54401C431C079301F800B0D6
:1051700046E09DF84200622808D068280ED06A28D0
:1051800014D06C281FD0712810D01CE0D9F8001062
:1051900051F8040BC9F8001040B21AE0D9F8001019
:1051A00051F8040BC9F8001000B212E0D9F8002041
:1051B000D21D22F00702C9F80020D2E9000108320E
:1051C000C9F8002006E0D9F8001051F8040BC9F81E
:1051D0000010C117CDE90201002902D507982D2141
:1051E0000AE0BDF84000810702D507982B2103E0B3
:1051F000C00705D50798202112AA1154401C07901A
:1052000012A807990144059102A8594600F04EF8EA
:1052100016E001200790D9F8000050F8041BC9F8E7
:1052200000008DF848100BE025210122BBF1000F92
:105230008DF84810079203D08DF849B002210791EC
:105240000F9A07980A990C9C121A0898521A0B99EF
:10525000121A0998521A121A9DF84000141B41079D
:105260003FF5B8AA2020002C8DF800007FF7B2AAE5
:10527000309E2546FFF7A2BA4FF0FF3031B0BDE8AF
:10528000F08F0000CBCCCC0C686A6C747A4C0000B8
:105290007072696E74665F733A2062616420257370
:1052A00020617267756D656E740000002DE9FC4326
:1052B00004466F29256908BF082605D041F0200063
:1052C000782814BF0A261026D4E900233C279046EC
:1052D0009946642918BF692905D1002B03D5D8F157
:1052E000000869EB4909B9F1000F08BFB8F1000FD8
:1052F0000CD1206B50B9082E3AD194F83800010730
:1053000036D530203B2785F83B0031E08DF8001082
:10531000404649463246F31700F04CF93032D0B2DD
:105320007F1E3A2801970EDAEA5540464946324632
:10533000F31700F03FF980465FEA010908BFB8F1B2
:10534000000F05D108E09DF800001218513AEBE774
:10535000E068E9198842DBD3082E09D194F83800B7
:10536000010705D5E85D302802D07F1E3020E855C2
:10537000C7F13C02A261E919E160206B824208DAC0
:10538000821A22624FF6EF70218F01402187BDE81B
:10539000F38300280ED594F8380000F0140010288C
:1053A00008D1636B6169206A5B1A1B1A9A1A002A7A
:1053B000C8BF2262BDE8F3832DE9D04306460F46FD
:1053C00014464FF00008DFF8449012E0E00707D5DC
:1053D00042464B4630463946FDF722FC06460F460C
:1053E0004046494642464B46FDF71AFC641080464B
:1053F0008946002CEAD130463946BDE8D08300000A
:10540000A08601000000F03F84D7974100002440AF
:1054100010B503460C461146A0689847A06020B11D
:10542000E06A401CE062002010BD4FF0FF3010BD6C
:10543000F8B505460E4617461C4600205CB117F825
:10544000011BB068A847B06030B1F06A401CF06240
:105450000020641EF3D1F2BD4FF0FF30F2BD00001A
:105460007072696E74665F733A20256E206469738A
:10547000616C6C6F776564007072696E74663A2057
:1054800062616420256E20617267756D656E7400BF
:10549000000000006E616E004E414E00696E6600B5
:1054A000494E460030000000C9B202788A421AB163
:1054B0001CBF10F8012FF9E718BF0020704700004B
:1054C00080B500B906A005490B681BB12222002156
:1054D000984701E000F086F9222002BD88170020DD
:1054E000636F6E73747261696E742068616E646C50
:1054F00065723A20626164206D657373616765004F
:1055000000F10103810704D010F8011B820781B16B
:10551000FAD10268A2F10131914311F0803104BF48
:1055200050F8042FF6E709BAB1FA81F100EBD10087
:10553000401CC01A70470000C9B2830706D0521E33
:1055400022D310F8013B9942F7D11FE0083A13D358
:1055500002F1040241EA012141EA014150F8043B11
:10556000121F21BF4B40A3F1013C2CEA030C1CF09D
:10557000803FF3D0C9B2001F083210F8013B521E21
:1055800028BF91EA030FF8D818BF0120401E7047CA
:10559000400D40F21E4C40EAC120BCEB115C40F0D3
:1055A000004003D48CF30701C84070476FEAE170F4
:1055B00070470000BBBBE1B1B2F5803F80F07E8058
:1055C000022A1ED98C46B1FBF2F102FB11C31B0467
:1055D00043EA1043B3FBF2FC02FB1C3380B240EA07
:1055E0000343B3FBF2F002FB103240EA0C4000230D
:1055F0007047022A05D98446B0FBF2F002FB10C2C4
:1056000070474AB105D100F0010249085FEA300055
:10561000704700220023704700F0E8B80B0002003A
:10562000002100207047904271EB030CF6D3B3F5D4
:10563000803F2FD2F0B5B3FA83F7B1FA81F4A7F126
:105640000F0E3D1B5340CEF1200602FA0EF2F3413D
:105650005340B5F10F0746D80F3C2C444140C4F1EC
:105660002006A040F1414140B1FBF3F603FB1611C7
:10567000A2FB0645001BA94102D2761E80185941A3
:1056800080EA010221FA0EF362FA0EF200215A407A
:105690003046F0BD30B4B1FBF3FC03FB1C11A2FBA0
:1056A0000C45001BA94103D2ACF1010C80185941F3
:1056B00030BC02460B46604600217047B2F1807F45
:1056C00065D3F0B5B2FA82F7B1FA81F4C7F10F06EB
:1056D0003D1B22FA06F307F1110EF24120355A4024
:1056E000B5F10F07B8D94140C4F12006A040F141FF
:1056F0004140B1FBF3FC03FB1C11A2FB0C45001B5A
:10570000A94103D2BCF1010C801859410F2F12D3CB
:105710000F3FC90341EA5041B1FBF3F603FB1611F9
:10572000A2FB0645D4EBC030A94102D2761E8018F8
:10573000594146EACC3C07B34140C7F12006B84086
:10574000F1414140B1FBF3F603FB1611A2FB064504
:10575000001BA94102D2761E8018594180EA01023D
:1057600021FA0EF3C7F1200462FA0EF20CFA07F0E8
:105770005A402CFA04F13043F0BD80EA010221FACC
:105780000EF3002162FA0EF260465A40F0BD8C46DC
:10579000B1FBF2F102FB11C31B0243EA1063B3FB3E
:1057A000F2FC02FB1C331B024CEA002043EA1063AC
:1057B000B3FBF2FC02FB1C331B024CEA002043EA61
:1057C0001063B3FBF2FC02FB1C331B024CEA00200B
:1057D00043EA1063B3FBF2FC02FB1C324CEA0020EC
:1057E00000237047012000F003B80000704700005C
:1057F0002021090326311820ABBEF9E701210170F1
:1058000070474FF6C041A0F801107047C170704753
:105810008180704780B500F02BFDC0B2002801D018
:10582000012010E00023002200214FF4807000F0DE
:1058300021F90100C9B2002904D14FF47A7108207E
:1058400000F008FFC0B202BD11B581B0DFF8200240
:105850009DF8041002685170012201A9006810F13E
:105860000C042000FCF7F2FD0023002201214FF47C
:10587000007000F0FFF80100C9B2002904D14FF414
:105880007A71012000F0E6FEC0B216BD2DE9F143A9
:105890000D00140001226946DFF8D461306810F170
:1058A0000C073800FCF7D2FD002D06D1002C04D1E6
:1058B0004FF401775FF0010821E040F205275FF027
:1058C00003080222306810F10D0929004846FCF750
:1058D000BDFD002C13D040F2062718F10708062260
:1058E0002100306810F10F052800FCF7AFFD012200
:1058F000A11D306810F115042000FCF7A7FD9DF8EC
:10590000000031688870002300224146C9B2380087
:1059100000B200F0AFF80100C9B2002904D14FF481
:105920007A71082000F096FEC0B2BDE8F28380B51F
:1059300002000123002140F2072000F09BF8010043
:10594000C9B2002904D14FF47A71012000F082FE1F
:10595000C0B202BDFEB50500002001226946DFF895
:105960001041206810F10C063000FCF76FFD9DF827
:105970000020206810F10D0629003000FCF766FDBC
:105980009DF80400032805D140F21A259DF8006017
:10599000761C1AE040F21B259DF80060361D01229E
:1059A00001A920689DF80030184410F10D07380057
:1059B000FCF74CFD022202A920689DF80030184433
:1059C00010F10E042000FCF741FD002300223100FD
:1059D000C9B2280000B200F04DF80100C9B2002998
:1059E00004D14FF47A71012000F034FEC0B2FEBD44
:1059F00080B50023002200214FF4A06000F03AF8A7
:105A00000100C9B2002904D14FF47A71012000F0DD
:105A100021FEC0B202BDF1B50C001500022269469C
:105A2000DFF84C60306810F10C073800FCF70EFD11
:105A3000306884732200D2B2306810F10F0629005A
:105A40003000FCF703FD00230022E41C2100C9B252
:105A500040F2015000F00EF80100C9B2002904D153
:105A60004FF47A71082000F0F5FDC0B2F2BD0000DD
:105A70000C0000202DE9F84306000F0014001D0063
:105A8000DFF88887D8F80000868017F10609D8F873
:105A90000000801DFFF7B2FED8F80000801DFFF760
:105AA000B0FEBF1C3900C9B2D8F80000801DFFF756
:105AB000ADFE310009B2D8F80000801DFFF7A8FE46
:105AC000002C09D0002D07D0D8F80000C0F888407D
:105AD000D8F80000C0F88C505FFA89F94946D8F828
:105AE0000000801D00F05FFCC0B2002801D1002042
:105AF00000E00120C0B2BDE8F28380B50A00D2B256
:105B0000032A01D2012024E0DFF80027136893F86C
:105B10004630042B01D001201BE0136893F8473076
:105B20000370126892F8482042704278C9B2C91EC8
:105B30008A4201D001200CE001780E2902D100F048
:105B400009F806E00178FF2902D100F02DF800E005
:105B5000012002BDDFF8B4160A6892F84A20C02A74
:105B600001D001201FE00A6892F84B20FC2A01D0E6
:105B7000012018E00A6892F84D200B6893F84C3029
:105B800053EA022343800A6892F84E2002710968A2
:105B90004F3181604178062901D2012003E041782C
:105BA000891F417000207047DFF860160A6892F87C
:105BB0004920A02A01D0012018E00A6892F84B2061
:105BC0000B6893F84A3053EA022343800A6892F83C
:105BD0004C20027109684D3181604178042901D25D
:105BE000012003E04178091F41700020704780B513
:105BF00001780E2902D100F004F801E000F0F8F875
:105C000002BD70B5040000F0FCFA00B26188884261
:105C100040F0BC8060884FF48171401A0DD040F292
:105C20000111401A28D00F385BD0C01E3ED0F33887
:105C300073D0401E00F0858094E06078042818D16D
:105C4000DFF8C8050168D1F88C10042911D100686B
:105C5000D0F88800A1684978A268127852EA012237
:105C60000280A168C978A268927852EA0122428033
:105C700001E00B2020718BE06078072813D1DFF85A
:105C80008C050168D1F88C1007290CD10068D0F878
:105C900088500622A1682E003000FCF7D7FBA068D0
:105CA0008079A87101E00B20207171E0DFF85C05BC
:105CB0000168D1F88C106278521E91420ED30068B0
:105CC000D0F88800A16809784160A1680A78A168C5
:105CD000491C05682800FCF7B9FB01E00B20207186
:105CE00056E06078002815D0DFF820050168D1F86B
:105CF0008C1005290ED10068D0F88800A1680978B9
:105D0000017001784A00A168491C851C2800FCF735
:105D10009DFB01E00B2020713AE0607800280DD057
:105D2000DFF8E8040168D1F88C10012906D1006879
:105D3000D0F88800A1680978017001E00B2020717B
:105D400026E0DFF8C8040068D0F888102079012820
:105D500002D10020087004E02079002801D1012040
:105D6000087015E0DFF8A4040168D1F88C1062789F
:105D7000914208D36278A1680068D0F88850280062
:105D8000FCF764FB01E00B20207101E00B20207187
:105D90002079002814D0012814D0022814D0032818
:105DA00014D0042814D0052814D0062814D00728AD
:105DB00014D0102814D0112814D0122814D015E0B3
:105DC000082014E00A2012E0092010E00B200EE069
:105DD0000C200CE00D200AE00E2008E00F2006E069
:105DE000102004E0122002E0132000E0032070BD28
:105DF00070B50400608840F20111401A2FD0401E97
:105E00003AD0FE38012852D9001F02287AD9001F43
:105E100000F0BC80401E00F0C880401F00F0B6803B
:105E2000F23800F0E780401E00F0F980401E00F0DC
:105E30000681401E00F01C81401E00F02E814FF4B0
:105E4000FE71401A00F06B814FF48071401A00F02F
:105E500033814FF48071401A00F0438185E160780E
:105E6000012801D003208DE1A0680078DFF89C13A1
:105E7000096881F8F40078E16078032801D20320F2
:105E800080E1DFF88803A1684978A268127852EAB5
:105E900001220168A1F8BC20A1688978026882F813
:105EA000BE10A168C91C0068C0F8C0105DE1607830
:105EB0000A2801D2032065E1DFF85053A06800787A
:105EC000296881F8A6000622A068411C286810F104
:105ED000A0063000FCF7BAFAA068C079296881F8FA
:105EE000A700A06890F90800296881F8A800A068B8
:105EF000407A2968C1F8B000A0680A302968C1F862
:105F0000AC0032E16078112801D003203AE1DFF8DB
:105F1000FC52A0684078A168097851EA00212868FD
:105F2000A0F8CC10A0688078296881F8CE00A0681D
:105F3000C078296881F8D5000622A068011D28686C
:105F400010F1CF063000FCF781FAA068807A29684A
:105F500081F8D600A068007BA168C97A51EA0021C7
:105F60002868A0F8D810A068807BA168497B51EA16
:105F700000212868A0F8DA10A068007CA168C97B1D
:105F800051EA00212868A0F8DC10EEE060780028D3
:105F900001D10320F6E09D4861780268C2F8F01054
:105FA000A1680068C0F8EC10DFE06078092801D231
:105FB0000320E7E0954DA0680078296881F89600F5
:105FC0000622A068411C286810F190063000FCF7FA
:105FD0003DFAA06890F90700296881F89700A06849
:105FE000007A2968C1F89C00A06809302968C1F8C6
:105FF0009800BAE06078032801D00320C2E083480B
:10600000A1684978A268127852EA01220168A1F8D1
:10601000C420A1688978006880F8C610A5E060787F
:10602000022801D00320ADE0A0684078A16809787B
:1060300051EA002175480068A0F8C41095E0607826
:10604000082801D003209DE07048A1684978A26823
:10605000127852EA01220168A1F8C4200622A16840
:10606000891C006810F1C6052800FCF7EFF97CE0F8
:106070006078032801D0032084E06448A16849784F
:10608000A268127852EA01220168A1F8C420A1682E
:106090008978006880F8C61067E06078062801D02B
:1060A00003206FE00622A1685848006810F1B4058B
:1060B0002800FCF7CBF958E06078032801D00320D2
:1060C00060E05248A1684978A268127852EA012239
:1060D0000168A1F8DE20A1688978006880F8E010E6
:1060E00043E06078092801D003204BE0474DA068C9
:1060F0004078A168097851EA00212868A0F8E210E8
:106100000622A068811C286810F1E4063000FCF724
:106110009DF9A068007A296881F8EA0025E03B48EB
:10612000016891F84F10152902D26178032901D234
:10613000032027E0A1684978A268127852EA012278
:106140000168A1F8F620016891F84F10026882F802
:10615000F810016891F84F2001685031006810F183
:10616000F9052800FCF772F9FFE72079002806D02E
:10617000608840F20111884201D0032002E0B4F9A6
