:1000000000200020152F00001D30000021300000CE
:1000100025300000293000002D300000193100008B
:100020001931000019310000193100003130000091
:100030003530000019310000393000003D3000003B
:100040004130000007290000453000004930000021
:100050004D30000051300000553000005930000094
:100060005D30000061300000653000006930000044
:100070006D300000713000007530000079300000F4
:100080007D300000813000008530000089300000A4
:100090008D30000091300000953000009930000054
:1000A0009D300000A1300000A5300000A930000004
:1000B000AD300000B1300000B5300000B9300000B4
:1000C000BD300000C1300000C5300000C930000064
:1000D000CD300000D1300000D5300000D930000014
:1000E000DD300000E1300000E5300000E9300000C4
:1000F000ED300000F1300000F53000001931000053
:1001000019310000193100001931000019310000C7
:1001100019310000193100001931000019310000B7
:10012000F9300000FD300000013100000531000011
:10013000093100000D3100001131000015310000BF
:10014000FFFFFFFFFFFFFFFFFFFFFFFFFFFFFFFFBF
:10015000FFFFFFFFFFFFFFFFFFFFFFFFFFFFFFFFAF
:10016000FFFFFFFFFFFFFFFFFFFFFFFFFFFFFFFF9F
:10017000FFFFFFFFFFFFFFFFFFFFFFFFFFFFFFFF8F
:10018000FFFFFFFFFFFFFFFFFFFFFFFFFFFFFFFF7F
:1001900003329CA77F000000FFFFFFFFFFFFFFFF70
:1001A000FFFFFFFFFFFFFFFFFFFFFFFFFFFFFFFF5F
:1001B000FFFFFFFFFFFFFFFFFFFFFFFFFFFFFFFF4F
:1001C000FFFFFFFFFFFFFFFFFFFFFFFFFFFFFFFF3F
:1001D000FFFFFFFFFFFFFFFFFFFFFFFFFFFFFFFF2F
:1007F000FFFFFFFFFFFFFFFFFFFFFFFF425B3F8F9A
:100800002DE9F14FB0B0924604910DF142013A9AB0
:100810002B9199464A7000200AE01AF8011B0498AF
:10082000309A90470028049000F05C860D98401C98
:100830000D909AF8000050B12528EED10021002239
:100840000791089209910A920B910C9204E00D987D
:1008500000F04ABE41F001011AF8010F2028F9D03A
:1008600023280CD02B2804D02D2805D0302809D0DF
:100870000BE041F00201EFE741F00401ECE741F049
:100880000801E9E741F01001E6E72A280FD1D9F87D
:10089000002052F8040BC9F8002000280F9003D55F
:1008A00040420F9041F004010AF1010A14E00F9256
:1008B000DFF83C3C0AE00F98984205DA00EB800430
:1008C00002EB4402303A0F920AF1010A9AF8002032
:1008D000A2F130000A28EED39AF800002E2803D0A7
:1008E0004FF0FF320E9229E01AF8010F2A2809D1A1
:1008F000D9F8000050F8042BC9F800000E920AF154
:10090000010A1BE02D280CBF0AF1010A0020002279
:100910000E92DFF8DC4B0BE040B90E9AA24205DAEA
:1009200002EB820503EB4503303B0E930AF1010A0B
:100930009AF80030A3F130020A2AEDD3ADF8401046
:100940000FF6B0309AF8001000F0F8FE08B11AF86F
:10095000010B8DF842009DF84200682805D19AF8F5
:10096000000068280CD1622106E06C2804BF9AF8C8
:1009700000006C2804D171218DF842100AF1010A9F
:1009800012A806901AF801BBBBF125012CD01C3926
:1009900000F0D681091F022940F2D281133900F0FC
:1009A000D384093900F0CC81891E00F06885491E86
:1009B00000F01585491E022940F2C281091F00F08E
:1009C0000E85491F00F03181491E00F0BD84491E8B
:1009D00000F0D880C91E0DD0891E00F0B584C91E54
:1009E00000F0B28400F056BD25238DF84830012177
:1009F00000F05BBDD9F8000050F8044BC9F80000C6
:100A0000002C059440F0AB802B994878002800F02A
:100A1000A1804FF0FF340FF6E42000F09BFE201A77
:100A200040F0608500F042BD01236A4602A93046CD
:100A300000F034FE002840F055856D1EF4D130964C
:100A4000079D12AF75B1309E17F8012B02A93046F1
:100A500000F014FE002801D46D1EF5D10028309658
:100A600040F040850A9D3020002D8DF800000CDDFF
:100A7000309E01236A4602A9304600F00FFE00288E
:100A800040F030856D1EF4D13096059F089D75B1FC
:100A9000309E17F8012B02A9304600F0EFFD002828
:100AA00001D46D1EF5D10028309640F01B850B9DBA
:100AB0003020002D8DF800000CDD309E01236A46A9
:100AC00002A9304600F0EAFD002840F00B856D1EBB
:100AD000F4D1309605980899099D471875B1309E54
:100AE00017F8012B02A9304600F0C8FD002801D4F8
:100AF0006D1EF5D10028309640F0F4840C9D302016
:100B0000002D8DF800000CDD309E01236A4602A9FD
:100B1000304600F0C3FD002840F0E4846D1EF4D19F
:100B200030969DF8400041077FF583AE2020002CD1
:100B30008DF800007FF77DAE309D01236A4602A943
:100B4000284600F0ABFD002840F0CC84641EF4D1B0
:100B500030956EE60FF6A430059000F0A7BC0E9D10
:100B6000002D04D5204600F015FE044607E02A4675
:100B7000204600F02BFE002814BF041B2C460894CE
:100B800000F094BCD9F8001051F8040BC9F800101B
:100B900020F00004002121F0FF3512ABCDE9024521
:100BA0000593DDE9022306993C2413B90AB90E988E
:100BB000A0B102F00F05641E30353A2D08DA120993
:100BC0000D5542EA03721B0908BF002A02D105E055
:100BD0002735F4E705980D19A842EAD308190590BE
:100BE000C4F13C020E98089282420ADABDF8401025
:100BF000821A4FF6EF7001400A92ADF8401000F0F3
:100C000055BC002840F152849DF8400000F01400CB
:100C1000102840F04B840F9B07990A985B1A1B1A07
:100C20009A1A002A40F342848CE32B99487820B129
:100C30004FF0FF340FF69420EFE69DF84200622853
:100C400060D0682817D06A283FD06C2806D0712859
:100C500047D074282CD07A281DD062E0D9F8001033
:100C600051F8040BC9F80010002866D14FF0FF348A
:100C70000FF67020D1E6D9F8001051F8040BC9F82E
:100C8000001020B94FF0FF340FF65820C5E60D993B
:100C9000018000F00BBCD9F8001051F8040BC9F822
:100CA0000010002849D14FF0FF340FF63820B4E689
:100CB000D9F8001051F8040BC9F8001000283CD1F5
:100CC0004FF0FF340FF61C20A7E6D9F8001051F8BA
:100CD000040BC9F8001080B94FF0FF340FF6042060
:100CE0009BE6D9F8001051F8040BC9F8001020B9A0
:100CF0004FF0FF340FF6EC108FE60D9AD317C0E9D2
:100D00000023D3E3D9F8001051F8040BC9F8001000
:100D100020B94FF0FF340FF6CC107EE60D9901702C
:100D2000C4E3D9F8001051F8040BC9F8001020B939
:100D30004FF0FF340FF6AC106FE60D990160B5E38C
:100D4000D9F80020D21D22F00702C9F80020D2E90C
:100D500000010832C9F80020CDE90201C80F02D015
:100D600007982D210AE0BDF84000810702D50798B9
:100D70002B2103E0C00705D50798202112AA1154A2
:100D8000401C079012A80799DDE9024543184BF073
:100D900020006128059321AE0BD00E98002802D5C3
:100DA00006200E9005E001BF4BF0200067280121CE
:100DB0000E91DDE9020148004015401C0A460DD1A4
:100DC00009030BD0ABF1610703201A2F089002D260
:100DD0000FF62C110DE00FF62C110AE070B912037A
:100DE0000CD1ABF1610703201A2F08901CD30FF62A
:100DF0001C110322184600F015FD57E3DDE902013E
:100E00006A4600F063FDCDE902014BF02000612845
:100E100011D1059830210170821C0592BBF1610F40
:100E20000CBF7821582102E00FF6DC01E1E74170A8
:100E30000798801C0790DDE9020120F0000231F0E4
:100E4000004308BF002A02D10025002445E14BF0F1
:100E50002008B8F1610F40F095800E98002847BF38
:100E600021210191401C0190019F7F1C20462946B1
:100E700000220023DDE9024500F060FD38BF85F067
:100E8000004500998DF88420091F002F00910DF175
:100E9000850034DD0646204629460022002300F066
:100EA00067FD2BD21C2200F07DFD04460D4600F0AC
:100EB00017FEFF1F002F804609DD00F02DFE0246C1
:100EC0000B462046294600F0EFFE04460D46F01D75
:100ED0000721B8F1000F0CDD491E5EBF08F00F02BC
:100EE00000F8012D4FEA2818F3D502E0002200F89F
:100EF000012D491EFAD5C61D002FCCDC30460DF160
:100F00008501401A01990DF1850605468842C8BF42
:100F10000D46002D2FD4854206DA0DF18500415D86
:100F20000829A8BF0F2000DA0020294621AA0A4478
:100F300000E06D1E12F80139491E8342F9D00F28D6
:100F400004D10DF18500425C521C4254002904D5A5
:100F50000098001D21AE6D1C0090681E0BD4311846
:100F60000A783032D3B23A2BA4BF5A443A3A401EE0
:100F700001F80129F4D50E98002840F1AD80691ED2
:100F80000E91A9E00099DFF8E42647F2975041431B
:100F900091FBF2F2009225F00045C2F10702002A0F
:100FA00004DD2046294600F03DFB0BE052420020C4
:100FB000DFF8BC1600F036FB02460B4620462946F9
:100FC00000F0E4FE04460D46B8F1660F06BF009F30
:100FD0000A3706270E983F18142FC8BF1427302051
:100FE0008DF884000DF1850000E03046002F35DDDE
:100FF00006462046294600F0EDFF01460A4606F166
:10100000080304200A26B2FBF6F606EB860EA2EBD6
:101010004E02303203F8012C0A22B6FBF2F202EB48
:10102000820EA6EB4E063036401E03F8026DE9D163
:10103000083F002F03F10806D7DD084600F0DCFF6B
:1010400002460B462046294600F02EFE0022DFF81D
:10105000243600F0DFFF04460D46CAE70DF1850196
:10106000401A0DF1850604E00099491E401E0091CA
:10107000761C31783029F7D0B8F1660F02D100998B
:10108000491C04E0B8F1650F0CBF012100210E9D41
:101090004D19A842B8BF451E002D1DD4854204DA63
:1010A000705D3428C8BF392000DC30202946721E0C
:1010B000531800E06D1E13F80149491E8442F9D00F
:1010C000392802D1705C401C7054002904D5009866
:1010D000401C16466D1C0090009C28B20E9F0028F4
:1010E00002DC01250FF228664BF02000662808BFBD
:1010F000641C15D067280FFA84F841D118F1040F49
:1011000044DBB84542DA9DF84000641C010703D473
:1011100028B2B842D8BF074620B23F1A48BF0027BE
:101120000FFA84F8B8F1000F00F3AF800898411C63
:101130000891302205990A54002F03DC9DF84000E5
:10114000010705D50898411C08912E2205990A54DB
:1011500017EB080FB8BF7C4220B24142C4192AB233
:101160000B919442B8BF2546059B08982DB209956E
:101170002A463146184400F055FB641B0C94CCE021
:10118000BBF1610F15D14FF0700B17E028B2B842D8
:1011900004DA9DF840100A0758BF07467F1E48BF73
:1011A0000027BBF1670F14BF4FF0450B4FF0650BE5
:1011B00004E0BBF1410F08BF4FF0500B0898411CF1
:1011C0000891002F059916F8012B0A5403DC9DF8AD
:1011D0004000010719D50898411C08912E22059955
:1011E0000A54002F11DD6D1E28B28742B8BF3D465C
:1011F0000598089B2AB23146184400F013FB089862
:101200002DB228187F1B08900B9705980899084461
:10121000B8F1000F80F800B003D42B224270821C7A
:1012200004E02D2144464170821C644200212CAB15
:1012300020460AE004460A2094FBF0F000EB80050B
:10124000A4EB450403F8014B491C00B20028F1DC73
:10125000012906DC4BF02000652804BF302002F88D
:10126000010B00292CAB08D1302002F8010B06E05D
:10127000491E585C303002F8010B0029F8DC059952
:1012800008980844121A099247E028B221B288420D
:101290001BDA0598089B2AB23146184400F0C2FABE
:1012A00008992DB269180891A8EB0500002F0B9042
:1012B00003DC9DF84000020705D5059A2E20505406
:1012C0000999491C09910C9727E00598089B22B2BF
:1012D0003146184400F0A6FA08982D1B4044002F10
:1012E000089003DC9DF840100A0704D5411C0891C2
:1012F0002E2205990A5428B28742B8BF3D46059868
:10130000089B2AB206EB0801184400F08BFA0898F3
:101310002DB228187D1B08900B959DF8400000F019
:101320001400102840F0C280079A08990B988A1878
:10133000099982180C988A1882180F98824280F2B4
:10134000B580821A0A92B1E09DF84200622808D066
:1013500068280ED06A2814D06C281FD0712810D0AD
:101360001CE0D9F8001051F8040BC9F80010C0B205
:101370001AE0D9F8001051F8040BC9F8001080B237
:1013800012E0D9F80020D21D22F00702C9F800208F
:10139000D2E900010832C9F8002006E0D9F80010AF
:1013A00051F8040BC9F800100021CDE902019DF8A5
:1013B000400001075AD5DDE90223002B08BF002AAF
:1013C00054D04BF02000782850D1079812A9302231
:1013D0000A54401C431C079301F800B046E09DF8F6
:1013E0004200622808D068280ED06A2814D06C28E1
:1013F0001FD0712810D01CE0D9F8001051F8040B50
:10140000C9F8001040B21AE0D9F8001051F8040BE6
:10141000C9F8001000B212E0D9F80020D21D22F065
:101420000702C9F80020D2E900010832C9F80020FB
:1014300006E0D9F8001051F8040BC9F80010C117E4
:10144000CDE90201002902D507982D210AE0BDF857
:101450004000810702D507982B2103E0C00705D57E
:101460000798202112AA1154401C079012A807992E
:101470000144059102A8594600F04EF816E00120FB
:101480000790D9F8000050F8041BC9F800008DF847
:1014900048100BE025210122BBF1000F8DF8481008
:1014A000079203D08DF849B0022107910F9A07984F
:1014B0000A990C9C121A0898521A0B99121A099838
:1014C000521A121A9DF84000141B41073FF5B8AAA2
:1014D0002020002C8DF800007FF7B2AA309E254610
:1014E000FFF7A2BA4FF0FF3031B0BDE8F08F000037
:1014F000CBCCCC0C686A6C747A4C00007072696E4C
:1015000074665F733A20626164202573206172679C
:10151000756D656E740000002DE9FC4304466F296B
:10152000256908BF082605D041F02000782814BF9F
:101530000A261026D4E900233C27904699466429C0
:1015400018BF692905D1002B03D5D8F1000869EB34
:101550004909B9F1000F08BFB8F1000F0CD1206B99
:1015600050B9082E3AD194F83800010736D530200A
:101570003B2785F83B0031E08DF800104046494696
:101580003246F31700F01CFE3032D0B27F1E3A28EC
:1015900001970EDAEA55404649463246F31700F005
:1015A0000FFE80465FEA010908BFB8F1000F05D1C0
:1015B00008E09DF800001218513AEBE7E068E919DD
:1015C0008842DBD3082E09D194F83800010705D5ED
:1015D000E85D302802D07F1E3020E855C7F13C027C
:1015E000A261E919E160206B824208DA821A226264
:1015F0004FF6EF70218F01402187BDE8F38300286B
:101600000ED594F8380000F01400102808D1636B50
:101610006169206A5B1A1B1A9A1A002AC8BF2262E3
:10162000BDE8F3832DE9D04306460F4614464FF03C
:101630000008DFF8449012E0E00707D542464B4629
:101640003046394600F0E6FC06460F46404649461D
:1016500042464B4600F0DEFC641080468946002C72
:10166000EAD130463946BDE8D0830000A0860100AB
:101670000000F03F84D797410000244010B5034696
:101680000C461146A0689847A06020B1E06A401C53
:10169000E062002010BD4FF0FF3010BDF8B50546E8
:1016A0000E4617461C4600205CB117F8011BB068B7
:1016B000A847B06030B1F06A401CF0620020641EA0
:1016C000F3D1F2BD4FF0FF30F2BD00007072696ED1
:1016D00074665F733A20256E20646973616C6C6F69
:1016E000776564007072696E74663A206261642086
:1016F000256E20617267756D656E740000000000D4
:101700006E616E004E414E00696E6600494E4600A5
:1017100030000EE002684368024408305FEAC37C90
:1017200044BF4B445B1E52F804CB43F804CB091F63
:10173000F9D150F8041B0029ECD17047C9B20278E6
:101740008A421AB11CBF10F8012FF9E718BF002018
:101750007047000080B500B906A005490B681BB1B1
:1017600022220021984701E000F042FE222002BD23
:10177000B4000020636F6E73747261696E742068C8
:10178000616E646C65723A20626164206D6573738A
:101790006167650000F10103810704D010F8011BA7
:1017A000820781B1FAD10268A2F10131914311F0AF
:1017B000803104BF50F8042FF6E709BAB1FA81F17D
:1017C00000EBD100401CC01A70470000C9B283076B
:1017D00006D0521E22D310F8013B9942F7D11FE0E8
:1017E000083A13D302F1040241EA012141EA01411E
:1017F00050F8043B121F21BF4B40A3F1013C2CEADF
:10180000030C1CF0803FF3D0C9B2001F083210F85F
:10181000013B521E28BF91EA030FF8D818BF0120E0
:10182000401E704762B38B0708D0521E11F8013B6F
:1018300000F8013B00F024808B07F6D1830740F0CD
:10184000208000BF103A07D330B4B1E83810103A06
:10185000A0E83810F9D230BC530724BFB1E8081013
:10186000A0E8081044BF51F8043B40F8043BD207FD
:1018700024BF31F8022B20F8022B44BF0B780370F1
:101880007047121F17D35B0009D151F8043B20F8B1
:10189000023B1B0C121F20F8023BF6D20BE051F862
:1018A000043B00F8013B1B0A20F8023B1B0C121FF3
:1018B00000F8013BF3D238BF121D521E24BF11F8AD
:1018C000013B00F8013BF8D87047000010B5144602
:1018D00000F002F8226010BDC1F30A5343B14A0080
:1018E00012F5001F28D2A3F2FE32A1EB025170477D
:1018F00050EA410C20D001F0004C31EA0C01B1FA61
:1019000081F204BFB0FA80F3D2180B3AB2F120038F
:101910002CBF00FA03F1914041EA0C013EBFC2F135
:10192000200C20FA0CF319439040524240F2FD3350
:10193000D21A01EB035170470022704741EA030CB1
:1019400050EA4C0C52EA0C0C4FF4001C09D307D09F
:101950001CEB410F9CBF1CEB430F8B4208BF824224
:1019600070471CEB430FFBD8994208BF9042704769
:1019700041EA030C50EA4C0C52EA0C0C4FF4001CE8
:1019800009D307D01CEB410F9CBF1CEB430F9942BE
:1019900008BF904270471CEB410FFBD88B4208BF39
:1019A00082427047124254D440F2FF7C1CEA115329
:1019B0000FD0634531D09B1863453CBF01EB02510A
:1019C000704701F0004141EA0C510020AFF3008064
:1019D000704750EA410320D001F0004C91EA0C011D
:1019E0001CD0B1FA81F30B3B9A420DD9D21A99401F
:1019F00051EA0C01C3F1200C20FA0CFC6144984020
:101A0000531C40F2FF7CD7E7914041EA0C01C2F140
:101A1000200C20FA0CF3194390407047B0FA80F381
:101A20001533202BE0D3202AEED3203A203B9A42D4
:101A300009D9D21A00FA03F141EA0C010020531C23
:101A400040F2FF7CB8E700FA02F141EA0C01002005
:101A50007047524240F2FF7C1CEA11530DD063459F
:101A6000DBD0B2EB030C3CBFA1EB025170470CF191
:101A7000010221EA035141F4801150EA410CCCD01B
:101A800001F0004C352A27DC30B481EA0C01B2F1B8
:101A9000200309DAC2F12003044601FA03F5D0401D
:101AA0002843D1409C400CE0C3F12002450020FABD
:101AB00003F418BF44F0010421FA03F091400C43F1
:101AC000002174F1004550F1000051EB0C0124425B
:101AD00030BC7FF47BAF70476146002076E70000A2
:101AE000C1F30A5340F21E42D31A0CDDCA0283F33B
:101AF000070342EA505242F00042DA4002EBE17240
:101B000082EAE17070476FEAE17203F2E13008B1F6
:101B100082F000407047000010F0004160B148BF03
:101B20004042B0FA80F29040D21CC2F5846241EA91
:101B3000025202EBD021400570470000841A71EB7D
:101B4000030604D26E40001BB141121973414FF4D9
:101B5000001C1CEB410F34BF7CEB430683E00C0DF3
:101B6000A4EB1356362E00F37C80012E45EAC323E6
:101B700041DC43EA525312BFD20292025B082405B1
:101B800045EAC12141EA5051D2EBC020994125D408
:101B900007D1B0FA80F610FA06F162D000202036A4
:101BA00008E0B1FA81F6B140C6F1200220FA02F253
:101BB0001143B0404FEAF474B4EB465434F00106DC
:101BC0004FEA74040AD8D6F50016760D04F00044E6
:101BD000F04061FA06F25040F1404840C00A40EA45
:101BE000415021F0004128BF5FEA500550F100004C
:101BF00044EBD12135E0DB0A45EAC121C90AB6F13F
:101C000020050EDD42EA0242120CC5F1200603FA5D
:101C100006F6EB4042EA06056D42984161F100018B
:101C20000DE062FA06F5F240554063FA06FC82EADE
:101C30000C02F3405A406D42904161EB030111F4F4
:101C4000801F05D1641E620502D06D0040414941EC
:101C500021F48011430875F1004350F1000041EB7D
:101C6000045170BC70471CEB410F15D223F00043A8
:101C700052EA43060BD04FEA4C0CBCEB410F04D8A0
:101C80000C0D661E342EB7DDEBE7801A994150EA41
:101C9000410608BF0021E4E708BF1CEB430F28BF43
:101CA0006FF00001DDE7000070B491EA030F4FF020
:101CB00000457FF543AF6B40841A71EB030603D2F6
:101CC000001BB141121973414FF4001C1CEB410F72
:101CD00034BF7CEB430442E00C0DA4EB1356352ECD
:101CE0004FDC45EAC323DB0A45EAC121C912B6F13C
:101CF00020050DDD63FA05F6EB4086EA0305124286
:101D000018BF45F00105C01851F100010CD213E0D5
:101D100062FA06F5F2405540F3415A40B340F340B1
:101D20005A408018594107D349085FEA30005FEAFA
:101D3000350528BF45F0010501F58011420875F110
:101D4000004250F1000041EB04514E0016F5001F17
:101D500070BC38BF70470020090D090570471CEBA7
:101D6000410F10D252EA43060BD0BCEB410F05D80D
:101D70000C0DAB43661E342EB6DD02E0AB4380187B
:101D8000594170BC704770BC70470000F0B540F21C
:101D9000FF7581EA030C0CF0004C15EA11541DBFCD
:101DA00015EA1357AC42AF42E5E0BC41C1F3130161
:101DB000C3F31303801A994143F4801304D2641EC1
:101DC0000018494180185941C90241EA5051B1FBFC
:101DD000F3F603FB1611A2FB0675D7EBC020A94151
:101DE00002D2761E80185941C90241EA5051B1FB16
:101DF000F3FE03FB1E11A2FB0E75D7EBC020A94119
:101E000003D2AEF1010E80185941890241EA905186
:101E1000760546EA8E2EB1FBF3F603FB1611A2FB04
:101E20000675D7EB8020A94102D2761E8018594151
:101E3000C90241EA50514EEA060EB1FBF3F603FB2C
:101E40001611A2FB0675D7EBC020A94102D2761E5F
:101E500080185941C90241EA5051B1FBF3F703FB25
:101E60001711A2FB0735D3EBC020A94167F100078A
:101E70000CBF004247F0010766F3D5274FEA1E3139
:101E8000B80814F5806412DDBD0775F1004250EB0F
:101E90000E5051EB045111F5801F5CBF41EA0C015B
:101EA000F0BD4CF07F6141F0E0410020F0BDBD0786
:101EB0006D0840EA0E5041F48011D4F10104B4F1F0
:101EC00020060ADAC4F120060200E04001FA06F317
:101ED000E1401843B24015430EE0342C13DCC6F148
:101EE000200445EA40056D0820FA06F2154321FA60
:101EF00006F0A1400D43002175F1004250F10000B1
:101F000051EB0C01F0BD00205FEA0C01F0BDCFB930
:101F100092185B41B3FA83F704BFB2FA82F6BF1995
:101F20000B3FB7F120062FBF02FA06F3BB40C7F103
:101F3000200622FA06F638BF3343BA401CB1E41932
:101F4000641E33E77F4231F00041B1FA81F404BFEF
:101F5000B0FA80F6A4190B3CB4F120062FBF00FAAA
:101F600006F1A140C4F1200620FA06F638BF31433D
:101F7000A0403C1B1AE7AC421ABF05EA1357AF4218
:101F800012E050EA41061CBF52EA4306BFE750EA9E
:101F90004107304661461CBF41EA0551F0BD52EA97
:101FA000430C08BFC143F0BD00204FF4001616EBF0
:101FB000410F98BF16EB430F08BF16EB410F24BF2C
:101FC000C14305E016EB430F0CBF61464CEA0551D7
:101FD000F0BD0000400D40F21E4C40EAC120BCEBB9
:101FE000115C40F0004003D48CF30701C8407047F7
:101FF0006FEAE1707047000050B1B0FA80F188409C
:10200000C91CC1F58461090501EBD0214005704769
:102010000146704730B540F2FF7C1CEA11541DBFE9
:102020001CEA1355644565453FE0641981EA030CD9
:102030006FF35F530CF0004C43F48013C90241F07E
:10204000004141EA505EC5021100A5FB02020028D2
:102050004FF00000EEFB01204FF00001E3FB0521F3
:1020600018BF42F00102401800214941E3FB0E0174
:10207000A4F580640D0302D292184041494154F105
:10208000010470DD450872F1004250F1000051EB8F
:102090000451A1F5801102D441EA0C0130BD40F297
:1020A000FF7E4CEA0E51002030BD0CEA135564450A
:1020B00018BF654581EA030C0CF0004C41D050EA92
:1020C000410E1CBF52EA430E02E06146002030BDC3
:1020D00024422C441BD15FEA050EF6D0090302BF4F
:1020E00001460020AEF1140EB1FA81F5AEEB050405
:1020F00001FA05FE0C35C5F1200100FA05F5C840CE
:102100004EEA000E6FF35F5343F480139CE733F005
:102110000043B3FA83F504BFB2FA82FE75440B3D67
:10212000641BB5F1200E2FBF02FA0EF3AB40C5F1D0
:10213000200E22FA0EFE38BF43EA0E03AA40641CAA
:102140007CE750EA410E14BF52EA430E6FF00001E3
:102150004FF4001515EB430F8EBF194615EB410FD9
:102160009DE7B4D830BDD4F10104B4F120050FDAF5
:10217000C4F12005520828BF42F0010210FA05FE02
:1021800001FA05F57244E2BFE0402843E1400FE068
:10219000352C9ADCC5F1200452EA400220FA05F2FF
:1021A00018BF42F0010231FA05F0A1400A430021B4
:1021B00072F1004250F1000051EB0C0130BD000003
:1021C000BBBBE1B1B2F5803F80F07E80022A1ED910
:1021D0008C46B1FBF2F102FB11C31B0443EA10432E
:1021E000B3FBF2FC02FB1C3380B240EA0343B3FBB7
:1021F000F2F002FB103240EA0C4000237047022A42
:1022000005D98446B0FBF2F002FB10C270474AB118
:1022100005D100F0010249085FEA30007047002252
:102220000023704700F0E8B80B00020000210020F6
:102230007047904271EB030CF6D3B3F5803F2FD279
:10224000F0B5B3FA83F7B1FA81F4A7F10F0E3D1B95
:102250005340CEF1200602FA0EF2F3415340B5F19D
:102260000F0746D80F3C2C444140C4F12006A04043
:10227000F1414140B1FBF3F603FB1611A2FB064509
:10228000001BA94102D2761E8018594180EA010242
:1022900021FA0EF362FA0EF200215A403046F0BDE8
:1022A00030B4B1FBF3FC03FB1C11A2FB0C45001B7B
:1022B000A94103D2ACF1010C8018594130BC02464F
:1022C0000B46604600217047B2F1807F65D3F0B5C0
:1022D000B2FA82F7B1FA81F4C7F10F063D1B22FA78
:1022E00006F307F1110EF24120355A40B5F10F0700
:1022F000B8D94140C4F12006A040F1414140B1FBB2
:10230000F3FC03FB1C11A2FB0C45001BA94103D2EB
:10231000BCF1010C801859410F2F12D30F3FC90394
:1023200041EA5041B1FBF3F603FB1611A2FB06454F
:10233000D4EBC030A94102D2761E8018594146EA3A
:10234000CC3C07B34140C7F12006B840F1414140C1
:10235000B1FBF3F603FB1611A2FB0645001BA941D6
:1023600002D2761E8018594180EA010221FA0EF34A
:10237000C7F1200462FA0EF20CFA07F05A402CFA68
:1023800004F13043F0BD80EA010221FA0EF300218E
:1023900062FA0EF260465A40F0BD8C46B1FBF2F193
:1023A00002FB11C31B0243EA1063B3FBF2FC02FB06
:1023B0001C331B024CEA002043EA1063B3FBF2FC1F
:1023C00002FB1C331B024CEA002043EA1063B3FB00
:1023D000F2FC02FB1C331B024CEA002043EA1063B0
:1023E000B3FBF2FC02FB1C324CEA002000237047D6
:1023F000012000F003B8000070470000202109030D
:1024000026311820ABBEF9E710B4DFF8702153690C
:10241000D168CB1851688B4207D29168D46841F8D3
:102420002400D168491CD16002E07FF00301916172
:1024300010BC704710B4C0F387020023DFF83C01E2
:102440004469A3420BD2006910F8230000F0FF009A
:10245000824202D10B60002003E05B1CEEE77FF0BC
:10246000060010BC704738B504000D00200080B293
:1024700000F0F4F82860002032BD70B4DFF8FC40B2
:102480006369E268D3186268934215D22269121F09
:10249000226122690500ADB2AD08166865F3070632
:1024A00016602269157805F0FF0555EA01251560CB
:1024B0006269521C626102E07FF00302A26170BC9B
:1024C00070471CB5040001A9200080B2FFF7B2FFDD
:1024D00000280AD06946200080B2FFF7C4FF0099A7
:1024E000200080B2FFF7C9FF07E0DFF89000006925
:1024F000019950F82100000A0090009816BD38B5E7
:1025000004000D00200080B2B0F5085F05DB7FF00D
:102510000400DFF8681088612EE06946200080B270
:10252000FFF788FF002817D1DFF8500000690099F5
:1025300000EB8100017801F0FF0151EA0521016003
:10254000210089B2890825F07F4050EA016050F0EF
:102550000040FFF759FF0FE02900200080B2FFF78D
:102560008CFF210089B2890825F07F4050EA016084
:1025700050F00040FFF748FF31BD00008C00002004
:102580001CB504008DF80140012269460DF10100DF
:1025900000F01BF99DF8000016BD1CB504002000DA
:1025A00080B2000A8DF8020020008DF8030002229C
:1025B00069460DF1020000F008F99DF800109DF841
:1025C000010050EA012080B216BD1CB504002000B5
:1025D000000E8DF8040001A82100090C41702100B3
:1025E000090A8170C4700422694601A800F0EDF860
:1025F00069469DF800204878000450EA02608A7815
:1026000050EA0220C978084316BD38B504000D0011
:1026100000F003F92020FFF7B3FF200080B2FFF79E
:10262000BCFF00F0FFF800F0F8F82D20FFF7A8FF3E
:10263000200080B2B0F5805F09DB200080B243F259
:102640001501884203DA2800FFF7BFFF03E02800E6
:1026500080B2FFF7A2FF00F0E5F831BD70B50400CD
:10266000002500F0DAF82020FFF78AFF200080B272
:10267000FFF793FF00F0D6F800F0CFF86D20FFF7DA
:102680007FFF0020FFF77CFF200080B2B0F5805F65
:102690000ADB200080B243F21501884204DA0020F0
:1026A000FFF793FF060003E00020FFF776FF060028
:1026B00000F0B8F8300070BD38B504000D00DFF848
:1026C000C4000078012805D12900200080B2FFF75E
:1026D00016FF04E02900200080B2FFF796FF31BD0D
:1026E00010B50400DFF89C000078012804D1200018
:1026F00080B2FFF7E6FE03E0200080B2FFF7AEFFF6
:1027000010BD10B59CB06846DFF87C107022FFF752
:1027100099F8DFF870000021C160002141610021BB
:1027200081610021017000F07DF800240E2C0AD296
:10273000684600EBC4004168684630F83400FFF793
:10274000BBFF641CF2E740F20440FFF7C9FF45F20B
:102750000151884204D10121DFF8302011700FE0CF
:1027600045F20251884204D10121DFF82020117086
:1027700006E0B0F5AA4F03D10021DFF81020117058
:102780001CB010BD8C000020442D0000B8000020BB
:1027900080B500F050F8C82000F051F800F047F87C
:1027A0004FF4FA7000F04BF801BD0000010049B28F
:1027B000002909D4012210F01F018A405649030064
:1027C0005BB25B0941F823207047F0B4002400237A
:1027D000524D2A80524D2D88ADB2934207D215F446
:1027E000706F04D04F4E36880E70491C5B1C9442AB
:1027F00008D215F00F06082E04D206784A4F3E8004
:10280000401C641C9342E5D19442E3D15FF0402523
:102810002D88AD07FAD5F0BC70474FF4806043496E
:10282000088070474FF4806041490880704740201D
:1028300040490880704740203F490880704710B5E4
:102840000400002C1ED00A2000FB04F03B49884203
:102850000ED24FF4827000FB04F039490860394809
:10286000052101600168C903FCD50021016009E070
:1028700020004008FFF7E3FF14F0010010EB5400C4
:10288000FFF7DDFF10BD10B504004FF6FF703049B3
:10289000088030490880304908803048018851F06C
:1028A000400101804020234908802D4815210268FD
:1028B00061F3050202602B48016831F44041016078
:1028C0002948018851F4806101800020274908804F
:1028D00044F24330264908800120104908802548E9
:1028E000018851F40041018009202349086001203A
:1028F000164908600120FFF759FFFFF793FFFFF724
:1029000096FF002010BD01201049086001200E49EB
:10291000086070470000000000E100E0184000403F
:102920002040004004400040084000405C0002405D
:1029300058000240980002409C0002409DD80900C7
:1029400014E000E010E000E0B000002090C004407F
:102950000800024048000240880002408400024013
:102960000000024040000240440002400C40004091
:10297000104000400C00024080C00440010049B2F9
:10298000002909D4012210F01F018A406F49030079
:102990005BB25B0941F82320704780B5002000F04E
:1029A0000BF80020FFF76FFF69496A4800F0FAF85A
:1029B00000F00CF9002002BD10B50400C9206649E2
:1029C000088066484CF614310160654A0A2313609A
:1029D00013681B05FCD5016040F2012061490860C5
:1029E0000020614908600020604908605FF46130A0
:1029F00000F002F8012010BD2DE9FE4F0600032073
:102A000002905FF0000A5A4C00255A4805210268DE
:102A100061F3175202605448006810F47C500012B1
:102A200000900098002801D1012000904D48D0F876
:102A3000009019F00309B9F1000F07D0B9F1020FA6
:102A400016D008D3B9F1030F1ED022E04A48002166
:102A500004000D001DE00068800504D546480021F3
:102A600004000D0003E04248002104000D0010E0C6
:102A70004248006810F01F00019001984049484307
:102A8000C11704000D0004E03B48002104000D00C4
:102A9000FFE703203B4908805FF020082000290061
:102AA000009A02FB08F2D317FFF78AFB3200F317F4
:102AB000FFF786FB07007F1E334807804FF4006056
:102AC000009901FB08F190FBF1F2D317A4FB02017E
:102AD00004FB031105FB02113A00FB17FFF770FB23
:102AE0003200F317FFF76CFBB0F5006050F40840BC
:102AF00026490880DFF898B00020ABF800001AF0F3
:102B00003C00029911F00301084322490880224940
:102B100001200880088850F0060008800A884FF6D7
:102B2000F97002400A800E20FFF728FF0520ABF85D
:102B300000001A48008880B2BDE8FE8F184908805E
:102B4000164909888906FBD57047000000E100E0BE
:102B500008300000A02F0000082C00400CC10440E9
:102B600010C1044000C3044004C3044014C3044023
:102B70000024F4000000024080BA8C010CC3044021
:102B800040420F002C50004028500040245000408C
:102B9000045000400C5000402050004014500040B1
:102BA000005000400EB4C0B5024603A800210190B9
:102BB000009101AB0121044878440C30FDF720FE60
:102BC00006BC5DF810FB00BF290400002DE9F041B0
:102BD000FFF7DEFDFFF795FD4FF48060FFF780FD06
:102BE000040021002648FFF7DDFF44F24410844230
:102BF00003D02448FFF7D6FF02E02348FFF7D2FFB7
:102C000041F2342000F091F842F210752800451E80
:102C1000002831D01D4E00F043F880B2306030689B
:102C200000043060376800F03BF880B2074337603B
:102C3000174F3868401C386042F2302831684046EF
:102C4000FFF73AFD4046FFF74BFD04003068844231
:102C500003D031680F48FFF7A5FF4FF47A70396849
:102C60003A68B2FBF0F200FB12100028CED121002E
:102C70000948FFF797FFC9E70848FFF793FFFEE70A
:102C8000AC2E0000682F0000842F0000AC00002054
:102C9000A80000205C2E0000D82F0000F42E0000B9
:102CA000F0B42449244AD1F8807056681078234C37
:102CB000234D6FF0004320BB082005FB0646374636
:102CC0001E46B7FBF6F6401E03FB1676F5D10F46FF
:102CD000102005FB06469C46B6FBFCFC03FB1C666D
:102CE0003E601E4657F804CB05FB0C4CBCFBF6F6C9
:102CF00003FB16C6401E47F8046BEAD1CF6F0120D4
:102D0000107005FB06461C4607F01F07B6FBF4F4DF
:102D100051F8270003FB146641F82760C1F88000D2
:102D2000566020F04040F0BC7047034900220A7012
:102D30004860704708000020000000205FF36E3CF0
:102D40000D66190008090000C9020000080C000007
:102D50006C200000F02100001000000010040000B2
:102D6000C9020000280A0000090000008C230000AE
:102D700004010000040A000059480000040A000091
:102D80007BF20000000A000009800000F022000031
:102D90000000000030220000AFA587DE50220000B6
:102DA0003F100000B02200003C2000003022000054
:102DB000A0A587DE80B50121062000F011F8EFF311
:102DC000108072B61249134A11605FF4E021124A72
:102DD0001160BFF36F8FBFF34F8F80F3108801BD79
:102DE000020044F659000D4B18600800C0B20128DB
:102DF00005D10B48036853EA5203036004E0084816
:102E0000036833EA520303600020704700000000AB
:102E10000000000008ED00E024ED00E00CC00440DC
:102E200014C0044030B4002512E050F8042BD3073E
:102E300044BF4A44521E091F042942F8045BFAD2D7
:102E400013468C0744BF15809B1CC90748BF1D70E3
:102E500050F8041B0029E8D130BC704757726974E0
:102E60006520726567697374657220746573742078
:102E70006661696C6564204030782530386C780A6A
:102E80000000000010B5074979441831064C7C4415
:102E9000163404E00A68081D114488470146A1421F
:102EA000F8D110BD2C0000004C0000005265616498
:102EB0002041444949442072656769737465722CE6
:102EC00020676F743A2030782530346C780A00001F
:102ED00055FFFFFFB40000000800002000000000C4
:102EE00033E8FFFF080000002C0100000000002074
:102EF0000000000053504920726561642F777269A9
:102F00007465207465737420636F6D706C6574658F
:102F1000640000000448006880F308880348804784
:102F200003480047FEE7000000000000B52D000048
:102F3000BD2F000000F00DF8002801D0FFF7A2FF20
:102F4000AFF300800020AFF30080FFF726FD00F014
:102F500002F80120704700F001B80000074638462B
:102F6000FFF74CFAFBE70000526561642072656769
:102F700069737465722074657374206661696C6529
:102F8000642E0A0052656164207265676973746516
:102F900072207465737420706173730A00000000FE
:102FA00048656C6C6F204144353934302D42756969
:102FB0006C642054696D653A25730A000548014622
:102FC00003B4684680F30988AFF30080AFF3008054
:102FD000FFF7B0FFA5EDF5FE6C61746573742064B6
:102FE0006174612069732030782530386C780A006C
:102FF00038B504460D462846FFF7A0FDA84218BF85
:103000000024204632BD000031313A35343A35369D
:10301000000000000000000001000000FFF7FEBFFC
:10302000FFF7FEBFFFF7FEBFFFF7FEBFFFF7FEBFD4
:10303000FFF7FEBFFFF7FEBFFFF7FEBFFFF7FEBFC4
:10304000FFF7FEBFFFF7FEBFFFF7FEBFFFF7FEBFB4
:10305000FFF7FEBFFFF7FEBFFFF7FEBFFFF7FEBFA4
:10306000FFF7FEBFFFF7FEBFFFF7FEBFFFF7FEBF94
:10307000FFF7FEBFFFF7FEBFFFF7FEBFFFF7FEBF84
:10308000FFF7FEBFFFF7FEBFFFF7FEBFFFF7FEBF74
:10309000FFF7FEBFFFF7FEBFFFF7FEBFFFF7FEBF64
:1030A000FFF7FEBFFFF7FEBFFFF7FEBFFFF7FEBF54
:1030B000FFF7FEBFFFF7FEBFFFF7FEBFFFF7FEBF44
:1030C000FFF7FEBFFFF7FEBFFFF7FEBFFFF7FEBF34
:1030D000FFF7FEBFFFF7FEBFFFF7FEBFFFF7FEBF24
:1030E000FFF7FEBFFFF7FEBFFFF7FEBFFFF7FEBF14
:1030F000FFF7FEBFFFF7FEBFFFF7FEBFFFF7FEBF04
:10310000FFF7FEBFFFF7FEBFFFF7FEBFFFF7FEBFF3
:0C311000FFF7FEBFFFF7FEBFFFF7FEBF9A
:0400000500002FBD0B
:00000001FF
